{
  "contractName": "Flashloan",
  "abi": [
    {
      "inputs": [
        {
          "internalType": "address",
          "name": "kyberAddress",
          "type": "address"
        },
        {
          "internalType": "address",
          "name": "uniswapAddress",
          "type": "address"
        },
        {
          "internalType": "address",
          "name": "wethAddress",
          "type": "address"
        },
        {
          "internalType": "address",
          "name": "beneficiaryAddress",
          "type": "address"
        }
      ],
      "payable": false,
      "stateMutability": "nonpayable",
      "type": "constructor"
    },
    {
      "anonymous": false,
      "inputs": [
        {
          "indexed": true,
          "internalType": "enum Flashloan.Direction",
          "name": "direction",
          "type": "uint8"
        },
        {
          "indexed": true,
          "internalType": "address",
          "name": "token1",
          "type": "address"
        },
        {
          "indexed": true,
          "internalType": "address",
          "name": "token2",
          "type": "address"
        },
        {
          "indexed": false,
          "internalType": "uint256",
          "name": "profit",
          "type": "uint256"
        },
        {
          "indexed": false,
          "internalType": "uint256",
          "name": "date",
          "type": "uint256"
        }
      ],
      "name": "NewArbitrage",
      "type": "event"
    },
    {
      "payable": true,
      "stateMutability": "payable",
      "type": "fallback"
    },
    {
      "constant": false,
      "inputs": [
        {
          "internalType": "address",
          "name": "sender",
          "type": "address"
        },
        {
          "components": [
            {
              "internalType": "address",
              "name": "owner",
              "type": "address"
            },
            {
              "internalType": "uint256",
              "name": "number",
              "type": "uint256"
            }
          ],
          "internalType": "struct Account.Info",
          "name": "account",
          "type": "tuple"
        },
        {
          "internalType": "bytes",
          "name": "data",
          "type": "bytes"
        }
      ],
      "name": "callFunction",
      "outputs": [],
      "payable": false,
      "stateMutability": "nonpayable",
      "type": "function"
    },
    {
      "constant": false,
      "inputs": [
        {
          "internalType": "address",
          "name": "_solo",
          "type": "address"
        },
        {
          "internalType": "uint256",
          "name": "_amount",
          "type": "uint256"
        },
        {
          "internalType": "address",
          "name": "_token1",
          "type": "address"
        },
        {
          "internalType": "address",
          "name": "_token2",
          "type": "address"
        },
        {
          "internalType": "enum Flashloan.Direction",
          "name": "_direction",
          "type": "uint8"
        }
      ],
      "name": "initateFlashLoan",
      "outputs": [],
      "payable": false,
      "stateMutability": "nonpayable",
      "type": "function"
    }
  ],
  "bytecode": "0x60806040523480156200001157600080fd5b506040516200390e3803806200390e83398181016040526200003791908101906200015b565b836000806101000a81548173ffffffffffffffffffffffffffffffffffffffff021916908373ffffffffffffffffffffffffffffffffffffffff16021790555082600160006101000a81548173ffffffffffffffffffffffffffffffffffffffff021916908373ffffffffffffffffffffffffffffffffffffffff16021790555081600260006101000a81548173ffffffffffffffffffffffffffffffffffffffff021916908373ffffffffffffffffffffffffffffffffffffffff16021790555080600360006101000a81548173ffffffffffffffffffffffffffffffffffffffff021916908373ffffffffffffffffffffffffffffffffffffffff1602179055505050505062000215565b6000815190506200015581620001fb565b92915050565b600080600080608085870312156200017257600080fd5b6000620001828782880162000144565b9450506020620001958782880162000144565b9350506040620001a88782880162000144565b9250506060620001bb8782880162000144565b91505092959194509250565b6000620001d482620001db565b9050919050565b600073ffffffffffffffffffffffffffffffffffffffff82169050919050565b6200020681620001c7565b81146200021257600080fd5b50565b6136e980620002256000396000f3fe6080604052600436106100295760003560e01c80638b4187131461002b578063922c8d8114610054575b005b34801561003757600080fd5b50610052600480360361004d9190810190612584565b61007d565b005b34801561006057600080fd5b5061007b600480360361007691908101906125eb565b611a45565b005b61008561215a565b8180602001905161009991908101906126cc565b905060008160200151905060008260400151905060008273ffffffffffffffffffffffffffffffffffffffff166370a08231306040518263ffffffff1660e01b81526004016100e89190612f4f565b60206040518083038186803b15801561010057600080fd5b505afa158015610114573d6000803e3d6000fd5b505050506040513d601f19601f8201168201806040525061013891908101906126f5565b905060008273ffffffffffffffffffffffffffffffffffffffff166370a08231306040518263ffffffff1660e01b81526004016101759190612f4f565b60206040518083038186803b15801561018d57600080fd5b505afa1580156101a1573d6000803e3d6000fd5b505050506040513d601f19601f820116820180604052506101c591908101906126f5565b9050600061012c42019050600060038111156101dd57fe5b866000015160038111156101ed57fe5b148061021357506001600381111561020157fe5b8660000151600381111561021157fe5b145b8061023857506002600381111561022657fe5b8660000151600381111561023657fe5b145b8061025c575060038081111561024a57fe5b8660000151600381111561025a57fe5b145b61029b576040517f08c379a000000000000000000000000000000000000000000000000000000000815260040161029290613106565b60405180910390fd5b600060038111156102a857fe5b866000015160038111156102b857fe5b1415610791578473ffffffffffffffffffffffffffffffffffffffff1663095ea7b36000809054906101000a900473ffffffffffffffffffffffffffffffffffffffff16856040518363ffffffff1660e01b815260040161031a929190612f6a565b602060405180830381600087803b15801561033457600080fd5b505af1158015610348573d6000803e3d6000fd5b505050506040513d601f19601f8201168201806040525061036c91908101906126a3565b6103ab576040517f08c379a00000000000000000000000000000000000000000000000000000000081526004016103a290613186565b60405180910390fd5b60008060009054906101000a900473ffffffffffffffffffffffffffffffffffffffff1673ffffffffffffffffffffffffffffffffffffffff1663809a9e558773eeeeeeeeeeeeeeeeeeeeeeeeeeeeeeeeeeeeeeee876040518463ffffffff1660e01b815260040161041f93929190612fca565b604080518083038186803b15801561043657600080fd5b505afa15801561044a573d6000803e3d6000fd5b505050506040513d601f19601f8201168201806040525061046e919081019061271e565b5090506000809054906101000a900473ffffffffffffffffffffffffffffffffffffffff1673ffffffffffffffffffffffffffffffffffffffff16633bba21dc8786846040518463ffffffff1660e01b81526004016104cf9392919061306f565b602060405180830381600087803b1580156104e957600080fd5b505af11580156104fd573d6000803e3d6000fd5b505050506040513d601f19601f8201168201806040525061052191908101906126f5565b50606060026040519080825280602002602001820160405280156105545781602001602082028038833980820191505090505b509050600260009054906101000a900473ffffffffffffffffffffffffffffffffffffffff168160008151811061058757fe5b602002602001019073ffffffffffffffffffffffffffffffffffffffff16908173ffffffffffffffffffffffffffffffffffffffff168152505086816001815181106105cf57fe5b602002602001019073ffffffffffffffffffffffffffffffffffffffff16908173ffffffffffffffffffffffffffffffffffffffff16815250506060600160009054906101000a900473ffffffffffffffffffffffffffffffffffffffff1673ffffffffffffffffffffffffffffffffffffffff1663d06ca61f47846040518363ffffffff1660e01b815260040161066892919061323c565b60006040518083038186803b15801561068057600080fd5b505afa158015610694573d6000803e3d6000fd5b505050506040513d6000823e3d601f19601f820116820180604052506106bd9190810190612662565b9050600160009054906101000a900473ffffffffffffffffffffffffffffffffffffffff1673ffffffffffffffffffffffffffffffffffffffff16637ff36ab5478360018151811061070b57fe5b60200260200101518530896040518663ffffffff1660e01b8152600401610735949392919061326c565b6000604051808303818588803b15801561074e57600080fd5b505af1158015610762573d6000803e3d6000fd5b50505050506040513d6000823e3d601f19601f8201168201806040525061078c9190810190612662565b505050505b6001600381111561079e57fe5b866000015160038111156107ae57fe5b1415610c88578473ffffffffffffffffffffffffffffffffffffffff1663095ea7b3600160009054906101000a900473ffffffffffffffffffffffffffffffffffffffff16856040518363ffffffff1660e01b8152600401610811929190612f6a565b602060405180830381600087803b15801561082b57600080fd5b505af115801561083f573d6000803e3d6000fd5b505050506040513d601f19601f8201168201806040525061086391908101906126a3565b6108a2576040517f08c379a000000000000000000000000000000000000000000000000000000000815260040161089990613126565b60405180910390fd5b606060026040519080825280602002602001820160405280156108d45781602001602082028038833980820191505090505b50905085816000815181106108e557fe5b602002602001019073ffffffffffffffffffffffffffffffffffffffff16908173ffffffffffffffffffffffffffffffffffffffff1681525050600260009054906101000a900473ffffffffffffffffffffffffffffffffffffffff168160018151811061094f57fe5b602002602001019073ffffffffffffffffffffffffffffffffffffffff16908173ffffffffffffffffffffffffffffffffffffffff16815250506060600160009054906101000a900473ffffffffffffffffffffffffffffffffffffffff1673ffffffffffffffffffffffffffffffffffffffff1663d06ca61f86846040518363ffffffff1660e01b81526004016109e892919061323c565b60006040518083038186803b158015610a0057600080fd5b505afa158015610a14573d6000803e3d6000fd5b505050506040513d6000823e3d601f19601f82011682018060405250610a3d9190810190612662565b9050600160009054906101000a900473ffffffffffffffffffffffffffffffffffffffff1673ffffffffffffffffffffffffffffffffffffffff166318cbafe58683600181518110610a8b57fe5b60200260200101518530886040518663ffffffff1660e01b8152600401610ab69594939291906132e1565b600060405180830381600087803b158015610ad057600080fd5b505af1158015610ae4573d6000803e3d6000fd5b505050506040513d6000823e3d601f19601f82011682018060405250610b0d9190810190612662565b5060008060009054906101000a900473ffffffffffffffffffffffffffffffffffffffff1673ffffffffffffffffffffffffffffffffffffffff1663809a9e5573eeeeeeeeeeeeeeeeeeeeeeeeeeeeeeeeeeeeeeee8a476040518463ffffffff1660e01b8152600401610b8293929190612fca565b604080518083038186803b158015610b9957600080fd5b505afa158015610bad573d6000803e3d6000fd5b505050506040513d601f19601f82011682018060405250610bd1919081019061271e565b5090506000809054906101000a900473ffffffffffffffffffffffffffffffffffffffff1673ffffffffffffffffffffffffffffffffffffffff16637a2a0456478a846040518463ffffffff1660e01b8152600401610c31929190613001565b6020604051808303818588803b158015610c4a57600080fd5b505af1158015610c5e573d6000803e3d6000fd5b50505050506040513d601f19601f82011682018060405250610c8391908101906126f5565b505050505b60026003811115610c9557fe5b86600001516003811115610ca557fe5b1415611239578473ffffffffffffffffffffffffffffffffffffffff1663095ea7b36000809054906101000a900473ffffffffffffffffffffffffffffffffffffffff16856040518363ffffffff1660e01b8152600401610d07929190612f6a565b602060405180830381600087803b158015610d2157600080fd5b505af1158015610d35573d6000803e3d6000fd5b505050506040513d601f19601f82011682018060405250610d5991908101906126a3565b610d98576040517f08c379a0000000000000000000000000000000000000000000000000000000008152600401610d8f906131e6565b60405180910390fd5b60008060009054906101000a900473ffffffffffffffffffffffffffffffffffffffff1673ffffffffffffffffffffffffffffffffffffffff1663809a9e558787876040518463ffffffff1660e01b8152600401610df893929190612fca565b604080518083038186803b158015610e0f57600080fd5b505afa158015610e23573d6000803e3d6000fd5b505050506040513d601f19601f82011682018060405250610e47919081019061271e565b5090506000809054906101000a900473ffffffffffffffffffffffffffffffffffffffff1673ffffffffffffffffffffffffffffffffffffffff16637409e2eb878688856040518563ffffffff1660e01b8152600401610eaa949392919061302a565b602060405180830381600087803b158015610ec457600080fd5b505af1158015610ed8573d6000803e3d6000fd5b505050506040513d601f19601f82011682018060405250610efc91908101906126f5565b508473ffffffffffffffffffffffffffffffffffffffff1663095ea7b3600160009054906101000a900473ffffffffffffffffffffffffffffffffffffffff16856040518363ffffffff1660e01b8152600401610f5a929190612f6a565b602060405180830381600087803b158015610f7457600080fd5b505af1158015610f88573d6000803e3d6000fd5b505050506040513d601f19601f82011682018060405250610fac91908101906126a3565b610feb576040517f08c379a0000000000000000000000000000000000000000000000000000000008152600401610fe290613146565b60405180910390fd5b6060600260405190808252806020026020018201604052801561101d5781602001602082028038833980820191505090505b509050858160008151811061102e57fe5b602002602001019073ffffffffffffffffffffffffffffffffffffffff16908173ffffffffffffffffffffffffffffffffffffffff1681525050868160018151811061107657fe5b602002602001019073ffffffffffffffffffffffffffffffffffffffff16908173ffffffffffffffffffffffffffffffffffffffff16815250506060600160009054906101000a900473ffffffffffffffffffffffffffffffffffffffff1673ffffffffffffffffffffffffffffffffffffffff1663d06ca61f86846040518363ffffffff1660e01b815260040161110f92919061323c565b60006040518083038186803b15801561112757600080fd5b505afa15801561113b573d6000803e3d6000fd5b505050506040513d6000823e3d601f19601f820116820180604052506111649190810190612662565b9050600160009054906101000a900473ffffffffffffffffffffffffffffffffffffffff1673ffffffffffffffffffffffffffffffffffffffff166338ed173986836001815181106111b257fe5b60200260200101518530896040518663ffffffff1660e01b81526004016111dd9594939291906132e1565b600060405180830381600087803b1580156111f757600080fd5b505af115801561120b573d6000803e3d6000fd5b505050506040513d6000823e3d601f19601f820116820180604052506112349190810190612662565b505050505b60038081111561124557fe5b8660000151600381111561125557fe5b14156117e9578473ffffffffffffffffffffffffffffffffffffffff1663095ea7b3600160009054906101000a900473ffffffffffffffffffffffffffffffffffffffff16856040518363ffffffff1660e01b81526004016112b8929190612f6a565b602060405180830381600087803b1580156112d257600080fd5b505af11580156112e6573d6000803e3d6000fd5b505050506040513d601f19601f8201168201806040525061130a91908101906126a3565b611349576040517f08c379a0000000000000000000000000000000000000000000000000000000008152600401611340906130e6565b60405180910390fd5b6060600260405190808252806020026020018201604052801561137b5781602001602082028038833980820191505090505b509050858160008151811061138c57fe5b602002602001019073ffffffffffffffffffffffffffffffffffffffff16908173ffffffffffffffffffffffffffffffffffffffff168152505084816001815181106113d457fe5b602002602001019073ffffffffffffffffffffffffffffffffffffffff16908173ffffffffffffffffffffffffffffffffffffffff16815250506060600160009054906101000a900473ffffffffffffffffffffffffffffffffffffffff1673ffffffffffffffffffffffffffffffffffffffff1663d06ca61f86846040518363ffffffff1660e01b815260040161146d92919061323c565b60006040518083038186803b15801561148557600080fd5b505afa158015611499573d6000803e3d6000fd5b505050506040513d6000823e3d601f19601f820116820180604052506114c29190810190612662565b9050600160009054906101000a900473ffffffffffffffffffffffffffffffffffffffff1673ffffffffffffffffffffffffffffffffffffffff166338ed1739868360018151811061151057fe5b60200260200101518530886040518663ffffffff1660e01b815260040161153b9594939291906132e1565b600060405180830381600087803b15801561155557600080fd5b505af1158015611569573d6000803e3d6000fd5b505050506040513d6000823e3d601f19601f820116820180604052506115929190810190612662565b508573ffffffffffffffffffffffffffffffffffffffff1663095ea7b36000809054906101000a900473ffffffffffffffffffffffffffffffffffffffff16866040518363ffffffff1660e01b81526004016115ef929190612f6a565b602060405180830381600087803b15801561160957600080fd5b505af115801561161d573d6000803e3d6000fd5b505050506040513d601f19601f8201168201806040525061164191908101906126a3565b611680576040517f08c379a0000000000000000000000000000000000000000000000000000000008152600401611677906131a6565b60405180910390fd5b60008060009054906101000a900473ffffffffffffffffffffffffffffffffffffffff1673ffffffffffffffffffffffffffffffffffffffff1663809a9e55888a886040518463ffffffff1660e01b81526004016116e093929190612fca565b604080518083038186803b1580156116f757600080fd5b505afa15801561170b573d6000803e3d6000fd5b505050506040513d601f19601f8201168201806040525061172f919081019061271e565b5090506000809054906101000a900473ffffffffffffffffffffffffffffffffffffffff1673ffffffffffffffffffffffffffffffffffffffff16637409e2eb88878b856040518563ffffffff1660e01b8152600401611792949392919061302a565b602060405180830381600087803b1580156117ac57600080fd5b505af11580156117c0573d6000803e3d6000fd5b505050506040513d601f19601f820116820180604052506117e491908101906126f5565b505050505b60008573ffffffffffffffffffffffffffffffffffffffff166370a08231306040518263ffffffff1660e01b81526004016118249190612f4f565b60206040518083038186803b15801561183c57600080fd5b505afa158015611850573d6000803e3d6000fd5b505050506040513d601f19601f8201168201806040525061187491908101906126f5565b905060008760600151820310156118c0576040517f08c379a00000000000000000000000000000000000000000000000000000000081526004016118b7906130c6565b60405180910390fd5b60008760600151820390508673ffffffffffffffffffffffffffffffffffffffff1663a9059cbb600360009054906101000a900473ffffffffffffffffffffffffffffffffffffffff16836040518363ffffffff1660e01b8152600401611928929190612f6a565b602060405180830381600087803b15801561194257600080fd5b505af1158015611956573d6000803e3d6000fd5b505050506040513d601f19601f8201168201806040525061197a91908101906126a3565b6119b9576040517f08c379a00000000000000000000000000000000000000000000000000000000081526004016119b0906131c6565b60405180910390fd5b876040015173ffffffffffffffffffffffffffffffffffffffff16886020015173ffffffffffffffffffffffffffffffffffffffff16896000015160038111156119ff57fe5b7f11e944aca3539ba70760461542172892c68b0d8afb8f8eaf5aa7371d240ab5f28442604051611a309291906132b8565b60405180910390a45050505050505050505050565b6000611a518685611ce1565b90506000611a5e86611e93565b90508473ffffffffffffffffffffffffffffffffffffffff1663095ea7b388836040518363ffffffff1660e01b8152600401611a9b929190612f6a565b602060405180830381600087803b158015611ab557600080fd5b505af1158015611ac9573d6000803e3d6000fd5b505050506040513d601f19601f82011682018060405250611aed91908101906126a3565b5060606003604051908082528060200260200182016040528015611b2b57816020015b611b186121b9565b815260200190600190039081611b105790505b509050611b388388611eb0565b81600081518110611b4557fe5b6020026020010181905250611bcf6040518060800160405280866003811115611b6a57fe5b81526020018873ffffffffffffffffffffffffffffffffffffffff1681526020018773ffffffffffffffffffffffffffffffffffffffff16815260200184815250604051602001611bbb9190613206565b604051602081830303815290604052611f69565b81600181518110611bdc57fe5b6020026020010181905250611bf18383612013565b81600281518110611bfe57fe5b602002602001018190525060606001604051908082528060200260200182016040528015611c4657816020015b611c33612225565b815260200190600190039081611c2b5790505b509050611c516120cc565b81600081518110611c5e57fe5b60200260200101819052508873ffffffffffffffffffffffffffffffffffffffff1663a67a6a4582846040518363ffffffff1660e01b8152600401611ca4929190612f93565b600060405180830381600087803b158015611cbe57600080fd5b505af1158015611cd2573d6000803e3d6000fd5b50505050505050505050505050565b60008083905060008173ffffffffffffffffffffffffffffffffffffffff1663295c39a56040518163ffffffff1660e01b815260040160206040518083038186803b158015611d2f57600080fd5b505afa158015611d43573d6000803e3d6000fd5b505050506040513d601f19601f82011682018060405250611d6791908101906126f5565b9050600080600090505b82811015611e51578373ffffffffffffffffffffffffffffffffffffffff1663062bd3e9826040518263ffffffff1660e01b8152600401611db29190613221565b60206040518083038186803b158015611dca57600080fd5b505afa158015611dde573d6000803e3d6000fd5b505050506040513d601f19601f82011682018060405250611e02919081019061255b565b91508573ffffffffffffffffffffffffffffffffffffffff168273ffffffffffffffffffffffffffffffffffffffff161415611e445780945050505050611e8d565b8080600101915050611d71565b506040517f08c379a0000000000000000000000000000000000000000000000000000000008152600401611e8490613166565b60405180910390fd5b92915050565b6000611ea960028361210590919063ffffffff16565b9050919050565b611eb8612255565b60405180610100016040528060016008811115611ed157fe5b815260200160008152602001604051806080016040528060001515815260200160006001811115611efe57fe5b815260200160006001811115611f1057fe5b8152602001858152508152602001848152602001600081526020013073ffffffffffffffffffffffffffffffffffffffff1681526020016000815260200160405180602001604052806000815250815250905092915050565b611f71612255565b604051806101000160405280600880811115611f8957fe5b815260200160008152602001604051806080016040528060001515815260200160006001811115611fb657fe5b815260200160006001811115611fc857fe5b81526020016000815250815260200160008152602001600081526020013073ffffffffffffffffffffffffffffffffffffffff16815260200160008152602001838152509050919050565b61201b612255565b6040518061010001604052806000600881111561203457fe5b81526020016000815260200160405180608001604052806001151581526020016000600181111561206157fe5b81526020016000600181111561207357fe5b8152602001858152508152602001848152602001600081526020013073ffffffffffffffffffffffffffffffffffffffff1681526020016000815260200160405180602001604052806000815250815250905092915050565b6120d46122c1565b60405180604001604052803073ffffffffffffffffffffffffffffffffffffffff1681526020016001815250905090565b600080828401905083811015612150576040517f08c379a0000000000000000000000000000000000000000000000000000000008152600401612147906130a6565b60405180910390fd5b8091505092915050565b60405180608001604052806000600381111561217257fe5b8152602001600073ffffffffffffffffffffffffffffffffffffffff168152602001600073ffffffffffffffffffffffffffffffffffffffff168152602001600081525090565b604051806101000160405280600060088111156121d257fe5b8152602001600081526020016121e66122f1565b81526020016000815260200160008152602001600073ffffffffffffffffffffffffffffffffffffffff16815260200160008152602001606081525090565b6040518060400160405280600073ffffffffffffffffffffffffffffffffffffffff168152602001600081525090565b6040518061010001604052806000600881111561226e57fe5b8152602001600081526020016122826122f1565b81526020016000815260200160008152602001600073ffffffffffffffffffffffffffffffffffffffff16815260200160008152602001606081525090565b6040518060400160405280600073ffffffffffffffffffffffffffffffffffffffff168152602001600081525090565b60405180608001604052806000151581526020016000600181111561231257fe5b81526020016000600181111561232457fe5b8152602001600081525090565b60008135905061234081613651565b92915050565b60008151905061235581613651565b92915050565b600082601f83011261236c57600080fd5b815161237f61237a82613368565b61333b565b915081818352602084019350602081019050838560208402820111156123a457600080fd5b60005b838110156123d457816123ba8882612546565b8452602084019350602083019250506001810190506123a7565b5050505092915050565b6000815190506123ed81613668565b92915050565b600082601f83011261240457600080fd5b813561241761241282613390565b61333b565b9150808252602083016020830185838301111561243357600080fd5b61243e8382846135ca565b50505092915050565b6000813590506124568161367f565b92915050565b60008151905061246b8161367f565b92915050565b60006080828403121561248357600080fd5b61248d608061333b565b9050600061249d8482850161245c565b60008301525060206124b184828501612346565b60208301525060406124c584828501612346565b60408301525060606124d984828501612546565b60608301525092915050565b6000604082840312156124f757600080fd5b612501604061333b565b9050600061251184828501612331565b600083015250602061252584828501612531565b60208301525092915050565b6000813590506125408161368f565b92915050565b6000815190506125558161368f565b92915050565b60006020828403121561256d57600080fd5b600061257b84828501612346565b91505092915050565b60008060006080848603121561259957600080fd5b60006125a786828701612331565b93505060206125b8868287016124e5565b925050606084013567ffffffffffffffff8111156125d557600080fd5b6125e1868287016123f3565b9150509250925092565b600080600080600060a0868803121561260357600080fd5b600061261188828901612331565b955050602061262288828901612531565b945050604061263388828901612331565b935050606061264488828901612331565b925050608061265588828901612447565b9150509295509295909350565b60006020828403121561267457600080fd5b600082015167ffffffffffffffff81111561268e57600080fd5b61269a8482850161235b565b91505092915050565b6000602082840312156126b557600080fd5b60006126c3848285016123de565b91505092915050565b6000608082840312156126de57600080fd5b60006126ec84828501612471565b91505092915050565b60006020828403121561270757600080fd5b600061271584828501612546565b91505092915050565b6000806040838503121561273157600080fd5b600061273f85828601612546565b925050602061275085828601612546565b9150509250929050565b600061276683836127ad565b60208301905092915050565b600061277e8383612da5565b905092915050565b60006127928383612f02565b60408301905092915050565b6127a781613528565b82525050565b6127b681613494565b82525050565b6127c581613494565b82525050565b60006127d6826133ec565b6127e0818561343f565b93506127eb836133bc565b8060005b8381101561281c578151612803888261275a565b975061280e83613418565b9250506001810190506127ef565b5085935050505092915050565b6000612834826133f7565b61283e8185613450565b935083602082028501612850856133cc565b8060005b8581101561288c578484038952815161286d8582612772565b945061287883613425565b925060208a01995050600181019050612854565b50829750879550505050505092915050565b60006128a982613402565b6128b38185613461565b93506128be836133dc565b8060005b838110156128ef5781516128d68882612786565b97506128e183613432565b9250506001810190506128c2565b5085935050505092915050565b612905816134a6565b82525050565b60006129168261340d565b6129208185613472565b93506129308185602086016135d9565b6129398161360c565b840191505092915050565b61294d8161353a565b82525050565b61295c8161355e565b82525050565b61296b81613570565b82525050565b61297a81613582565b82525050565b61298981613594565b82525050565b600061299c601b83613483565b91507f536166654d6174683a206164646974696f6e206f766572666c6f7700000000006000830152602082019050919050565b60006129dc602483613483565b91507f4e6f7420656e6f7567682066756e647320746f2072657061792064796478206c60008301527f6f616e21000000000000000000000000000000000000000000000000000000006020830152604082019050919050565b6000612a42603983613483565b91507f436f756c64206e6f7420617070726f7665212028556e6973776170546f6b656e60008301527f4b796265722042757920455448206f6e20556e697377617029000000000000006020830152604082019050919050565b6000612aa8601183613483565b91507f556e6b6e6f776e20646972656374696f6e0000000000000000000000000000006000830152602082019050919050565b6000612ae8603683613483565b91507f436f756c64206e6f7420617070726f7665212028556e6973776170546f4b796260008301527f65722042757920455448206f6e20556e697377617029000000000000000000006020830152604082019050919050565b6000612b4e603d83613483565b91507f436f756c64206e6f7420617070726f76652120284b79626572546f6b656e556e60008301527f69737761702053656c6c20544f4b454e32206f6e20556e6973776170290000006020830152604082019050919050565b6000612bb4602483613483565b91507f4e6f206d61726b6574496420666f756e6420666f722070726f7669646564207460008301527f6f6b656e000000000000000000000000000000000000000000000000000000006020830152604082019050919050565b6000612c1a603483613483565b91507f436f756c64206e6f7420617070726f76652120284b79626572546f556e69737760008301527f61702042757920455448206f6e204b79626572290000000000000000000000006020830152604082019050919050565b6000612c80603a83613483565b91507f436f756c64206e6f7420617070726f7665212028556e6973776170546f6b656e60008301527f4b796265722053656c6c20546f6b656e206f6e204b79626572290000000000006020830152604082019050919050565b6000612ce6602383613483565b91507f436f756c64206e6f74207472616e73666572206261636b207468652070726f6660008301527f69742100000000000000000000000000000000000000000000000000000000006020830152604082019050919050565b6000612d4c603a83613483565b91507f436f756c64206e6f7420617070726f76652120284b79626572546f6b656e556e60008301527f69737761702042757920544f4b454e32206f6e204b79626572290000000000006020830152604082019050919050565b600061016083016000830151612dbe6000860182612953565b506020830151612dd16020860182612f31565b506040830151612de46040860182612ead565b506060830151612df760c0860182612f31565b506080830151612e0a60e0860182612f31565b5060a0830151612e1e6101008601826127ad565b5060c0830151612e32610120860182612f31565b5060e0830151848203610140860152612e4b828261290b565b9150508091505092915050565b608082016000820151612e6e6000850182612980565b506020820151612e8160208501826127ad565b506040820151612e9460408501826127ad565b506060820151612ea76060850182612f31565b50505050565b608082016000820151612ec360008501826128fc565b506020820151612ed66020850182612962565b506040820151612ee96040850182612971565b506060820151612efc6060850182612f31565b50505050565b604082016000820151612f1860008501826127ad565b506020820151612f2b6020850182612f31565b50505050565b612f3a8161351e565b82525050565b612f498161351e565b82525050565b6000602082019050612f64600083018461279e565b92915050565b6000604082019050612f7f60008301856127bc565b612f8c6020830184612f40565b9392505050565b60006040820190508181036000830152612fad818561289e565b90508181036020830152612fc18184612829565b90509392505050565b6000606082019050612fdf6000830186612944565b612fec6020830185612944565b612ff96040830184612f40565b949350505050565b60006040820190506130166000830185612944565b6130236020830184612f40565b9392505050565b600060808201905061303f6000830187612944565b61304c6020830186612f40565b6130596040830185612944565b6130666060830184612f40565b95945050505050565b60006060820190506130846000830186612944565b6130916020830185612f40565b61309e6040830184612f40565b949350505050565b600060208201905081810360008301526130bf8161298f565b9050919050565b600060208201905081810360008301526130df816129cf565b9050919050565b600060208201905081810360008301526130ff81612a35565b9050919050565b6000602082019050818103600083015261311f81612a9b565b9050919050565b6000602082019050818103600083015261313f81612adb565b9050919050565b6000602082019050818103600083015261315f81612b41565b9050919050565b6000602082019050818103600083015261317f81612ba7565b9050919050565b6000602082019050818103600083015261319f81612c0d565b9050919050565b600060208201905081810360008301526131bf81612c73565b9050919050565b600060208201905081810360008301526131df81612cd9565b9050919050565b600060208201905081810360008301526131ff81612d3f565b9050919050565b600060808201905061321b6000830184612e58565b92915050565b60006020820190506132366000830184612f40565b92915050565b60006040820190506132516000830185612f40565b818103602083015261326381846127cb565b90509392505050565b60006080820190506132816000830187612f40565b818103602083015261329381866127cb565b90506132a2604083018561279e565b6132af6060830184612f40565b95945050505050565b60006040820190506132cd6000830185612f40565b6132da6020830184612f40565b9392505050565b600060a0820190506132f66000830188612f40565b6133036020830187612f40565b818103604083015261331581866127cb565b9050613324606083018561279e565b6133316080830184612f40565b9695505050505050565b6000604051905081810181811067ffffffffffffffff8211171561335e57600080fd5b8060405250919050565b600067ffffffffffffffff82111561337f57600080fd5b602082029050602081019050919050565b600067ffffffffffffffff8211156133a757600080fd5b601f19601f8301169050602081019050919050565b6000819050602082019050919050565b6000819050602082019050919050565b6000819050602082019050919050565b600081519050919050565b600081519050919050565b600081519050919050565b600081519050919050565b6000602082019050919050565b6000602082019050919050565b6000602082019050919050565b600082825260208201905092915050565b600082825260208201905092915050565b600082825260208201905092915050565b600082825260208201905092915050565b600082825260208201905092915050565b600061349f826134fe565b9050919050565b60008115159050919050565b60008190506134c08261361d565b919050565b60008190506134d38261362a565b919050565b60008190506134e682613637565b919050565b60008190506134f982613644565b919050565b600073ffffffffffffffffffffffffffffffffffffffff82169050919050565b6000819050919050565b6000613533826135a6565b9050919050565b60006135458261354c565b9050919050565b6000613557826134fe565b9050919050565b6000613569826134b2565b9050919050565b600061357b826134c5565b9050919050565b600061358d826134d8565b9050919050565b600061359f826134eb565b9050919050565b60006135b1826135b8565b9050919050565b60006135c3826134fe565b9050919050565b82818337600083830152505050565b60005b838110156135f75780820151818401526020810190506135dc565b83811115613606576000848401525b50505050565b6000601f19601f8301169050919050565b6009811061362757fe5b50565b6002811061363457fe5b50565b6002811061364157fe5b50565b6004811061364e57fe5b50565b61365a81613494565b811461366557600080fd5b50565b613671816134a6565b811461367c57600080fd5b50565b6004811061368c57600080fd5b50565b6136988161351e565b81146136a357600080fd5b5056fea365627a7a723158209e0759cc66eca15d24febbe9f95928d655a4371f0719e92331c61d23f01f35836c6578706572696d656e74616cf564736f6c63430005100040",
  "source": "// SPDX-License-Identifier: ISC\n// todo: gas token\n// todo: curve integration\npragma solidity ^0.5.0;\npragma experimental ABIEncoderV2;\n\nimport \"@studydefi/money-legos/dydx/contracts/DydxFlashloanBase.sol\";\nimport \"@studydefi/money-legos/dydx/contracts/ICallee.sol\";\nimport {KyberNetworkProxy as IKyberNetworkProxy} from \"@studydefi/money-legos/kyber/contracts/KyberNetworkProxy.sol\";\n\nimport \"@openzeppelin/contracts/token/ERC20/IERC20.sol\";\nimport \"./IUniswapV2Router02.sol\";\nimport \"./IWeth.sol\";\n\ncontract Flashloan is ICallee, DydxFlashloanBase {\n  enum Direction {KyberToUniswap, UniswapToKyber, KyberTokenUniswap, UniswapTokenKyber}\n\n  struct ArbInfo {\n    Direction direction;\n    address token1;\n    address token2;\n    uint256 repayAmount;\n  }\n\n  event NewArbitrage(Direction indexed direction, address indexed token1, address indexed token2, uint256 profit, uint256 date);\n\n  IKyberNetworkProxy kyber;\n  IUniswapV2Router02 uniswap;\n  IWeth weth;\n\n  address beneficiary;\n  address constant KYBER_ETH_ADDRESS = 0xEeeeeEeeeEeEeeEeEeEeeEEEeeeeEeeeeeeeEEeE;\n\n  constructor(\n    address kyberAddress,\n    address uniswapAddress,\n    address wethAddress,\n    address beneficiaryAddress\n  ) public {\n    kyber = IKyberNetworkProxy(kyberAddress);\n    uniswap = IUniswapV2Router02(uniswapAddress);\n    weth = IWeth(wethAddress);\n    beneficiary = beneficiaryAddress;\n  }\n\n  // This is the function that will be called postLoan\n  // i.e. Encode the logic to handle your flashloaned funds here\n  function callFunction(\n    address sender,\n    Account.Info memory account,\n    bytes memory data\n  ) public {\n    ArbInfo memory arbInfo = abi.decode(data, (ArbInfo));\n\n    /**\n     * token1 should be one the following tokens, we check it on script side\n     * USDC | DAI | WETH\n     */\n    IERC20 token1 = IERC20(arbInfo.token1);\n    /**\n     * token2 should be one of the following tokens\n     * BAT | KNC | LEND | LINK | MKR | SUSD\n     */\n    IERC20 token2 = IERC20(arbInfo.token2);\n\n    uint256 balanceToken1 = token1.balanceOf(address(this));\n    uint256 balanceToken2 = token2.balanceOf(address(this));\n    uint256 deadline = block.timestamp + 300; // add 300 millisec buffer time just in case it exceeds trading deadline\n\n    require(\n      arbInfo.direction == Direction.KyberToUniswap ||\n        arbInfo.direction == Direction.UniswapToKyber ||\n        arbInfo.direction == Direction.KyberTokenUniswap ||\n        arbInfo.direction == Direction.UniswapTokenKyber,\n      \"Unknown direction\"\n    );\n\n    if (arbInfo.direction == Direction.KyberToUniswap) {\n      // Buy ETH on Kyber\n      require(token1.approve(address(kyber), balanceToken1), \"Could not approve! (KyberToUniswap Buy ETH on Kyber)\");\n      (uint256 expectedRate, ) = kyber.getExpectedRate(token1, IERC20(KYBER_ETH_ADDRESS), balanceToken1);\n      kyber.swapTokenToEther(token1, balanceToken1, expectedRate);\n\n      // Sell ETH on Uniswap\n      address[] memory path = new address[](2);\n      path[0] = address(weth);\n      path[1] = address(token1);\n      uint256[] memory minOuts = uniswap.getAmountsOut(address(this).balance, path);\n      uniswap.swapExactETHForTokens.value(address(this).balance)(minOuts[1], path, address(this), deadline);\n    }\n\n    if (arbInfo.direction == Direction.UniswapToKyber) {\n      // Buy ETH on Uniswap\n      require(token1.approve(address(uniswap), balanceToken1), \"Could not approve! (UniswapToKyber Buy ETH on Uniswap)\");\n      address[] memory path = new address[](2);\n      path[0] = address(token1);\n      path[1] = address(weth);\n      uint256[] memory minOuts = uniswap.getAmountsOut(balanceToken1, path);\n      uniswap.swapExactTokensForETH(balanceToken1, minOuts[1], path, address(this), deadline);\n\n      // Sell ETH on Kyber\n      (uint256 expectedRate, ) = kyber.getExpectedRate(IERC20(KYBER_ETH_ADDRESS), token1, address(this).balance);\n      kyber.swapEtherToToken.value(address(this).balance)(token1, expectedRate);\n    }\n\n    if (arbInfo.direction == Direction.KyberTokenUniswap) {\n      // Buy TOKEN2 on Kyber\n      require(token1.approve(address(kyber), balanceToken1), \"Could not approve! (KyberTokenUniswap Buy TOKEN2 on Kyber)\");\n      (uint256 expectedRate, ) = kyber.getExpectedRate(token1, token2, balanceToken1);\n      kyber.swapTokenToToken(token1, balanceToken1, token2, expectedRate); // switched to swaptoken\n\n      // Sell TOKEN2 on Uniswap\n      // token approve needed for 2nd token on token to token exchange\n      require(token2.approve(address(uniswap), balanceToken2), \"Could not approve! (KyberTokenUniswap Sell TOKEN2 on Uniswap)\");\n      address[] memory path = new address[](2);\n      path[0] = address(token2);\n      path[1] = address(token1);\n      uint256[] memory minOuts = uniswap.getAmountsOut(balanceToken2, path);\n      uniswap.swapExactTokensForTokens(balanceToken2, minOuts[1], path, address(this), deadline);\n    }\n\n    if (arbInfo.direction == Direction.UniswapTokenKyber) {\n      // Buy TOKEN2 on Uniswap\n      require(token1.approve(address(uniswap), balanceToken1), \"Could not approve! (UniswapTokenKyber Buy ETH on Uniswap)\");\n      address[] memory path = new address[](2);\n      path[0] = address(token1);\n      path[1] = address(token2);\n      uint256[] memory minOuts = uniswap.getAmountsOut(balanceToken1, path);\n      uniswap.swapExactTokensForTokens(balanceToken1, minOuts[1], path, address(this), deadline);\n\n      // Sell TOKEN2 on Kyber\n      require(token2.approve(address(kyber), balanceToken2), \"Could not approve! (UniswapTokenKyber Sell Token on Kyber)\");\n      (uint256 expectedRate, ) = kyber.getExpectedRate(token2, token1, balanceToken2);\n      kyber.swapTokenToToken(token2, balanceToken2, token1, expectedRate);\n    }\n\n    uint256 balance = token1.balanceOf(address(this));\n    require(balance - arbInfo.repayAmount >= 0, \"Not enough funds to repay dydx loan!\");\n\n    uint256 profit = balance - arbInfo.repayAmount;\n    require(token1.transfer(beneficiary, profit), \"Could not transfer back the profit!\");\n\n    emit NewArbitrage(arbInfo.direction, arbInfo.token1, arbInfo.token2, profit, now);\n  }\n\n  function initateFlashLoan(\n    address _solo,\n    uint256 _amount,\n    address _token1,\n    address _token2,\n    Direction _direction\n  ) external {\n    // Get marketId from token address\n    uint256 marketId = _getMarketIdFromTokenAddress(_solo, _token1);\n\n    // Calculate repay amount (_amount + (2 wei))\n    // Approve transfer from\n    uint256 repayAmount = _getRepaymentAmountInternal(_amount);\n    IERC20(_token1).approve(_solo, repayAmount);\n\n    // 1. Withdraw $\n    // 2. Call callFunction(...)\n    // 3. Deposit back $\n    Actions.ActionArgs[] memory operations = new Actions.ActionArgs[](3);\n\n    operations[0] = _getWithdrawAction(marketId, _amount);\n    operations[1] = _getCallAction(\n      // Encode MyCustomData for callFunction\n      abi.encode(ArbInfo({direction: _direction, token1: _token1, token2: _token2, repayAmount: repayAmount}))\n    );\n    operations[2] = _getDepositAction(marketId, repayAmount);\n\n    Account.Info[] memory accountInfos = new Account.Info[](1);\n    accountInfos[0] = _getAccountInfo();\n\n    ISoloMargin(_solo).operate(accountInfos, operations);\n  }\n\n  function() external payable {}\n}\n",
  "sourcePath": "/home/min/Projects/lx/src/github.com/ilovelili/flashloan/contracts/Flashloan.sol",
  "compiler": {
    "name": "solc",
    "version": "0.5.16+commit.9c3226ce.Emscripten.clang"
  },
  "schemaVersion": "3.1.0",
  "updatedAt": "2020-09-07T14:20:13.324Z",
  "networkType": "ethereum",
  "devdoc": {
    "methods": {}
  },
  "userdoc": {
    "methods": {}
  }
}