{
  "contractName": "Flashloan",
  "abi": [
    {
      "inputs": [
        {
          "internalType": "address",
          "name": "kyberAddress",
          "type": "address"
        },
        {
          "internalType": "address",
          "name": "uniswapAddress",
          "type": "address"
        },
        {
          "internalType": "address",
          "name": "wethAddress",
          "type": "address"
        },
        {
          "internalType": "address",
          "name": "daiAddress",
          "type": "address"
        },
        {
          "internalType": "address",
          "name": "beneficiaryAddress",
          "type": "address"
        }
      ],
      "payable": false,
      "stateMutability": "nonpayable",
      "type": "constructor"
    },
    {
      "anonymous": false,
      "inputs": [
        {
          "indexed": true,
          "internalType": "enum Flashloan.Direction",
          "name": "direction",
          "type": "uint8"
        },
        {
          "indexed": true,
          "internalType": "uint256",
          "name": "profit",
          "type": "uint256"
        },
        {
          "indexed": true,
          "internalType": "uint256",
          "name": "date",
          "type": "uint256"
        }
      ],
      "name": "NewArbitrage",
      "type": "event"
    },
    {
      "payable": true,
      "stateMutability": "payable",
      "type": "fallback"
    },
    {
      "constant": false,
      "inputs": [
        {
          "internalType": "address",
          "name": "sender",
          "type": "address"
        },
        {
          "components": [
            {
              "internalType": "address",
              "name": "owner",
              "type": "address"
            },
            {
              "internalType": "uint256",
              "name": "number",
              "type": "uint256"
            }
          ],
          "internalType": "struct Account.Info",
          "name": "account",
          "type": "tuple"
        },
        {
          "internalType": "bytes",
          "name": "data",
          "type": "bytes"
        }
      ],
      "name": "callFunction",
      "outputs": [],
      "payable": false,
      "stateMutability": "nonpayable",
      "type": "function"
    },
    {
      "constant": false,
      "inputs": [
        {
          "internalType": "address",
          "name": "_solo",
          "type": "address"
        },
        {
          "internalType": "address",
          "name": "_token",
          "type": "address"
        },
        {
          "internalType": "uint256",
          "name": "_amount",
          "type": "uint256"
        },
        {
          "internalType": "enum Flashloan.Direction",
          "name": "_direction",
          "type": "uint8"
        }
      ],
      "name": "initateFlashLoan",
      "outputs": [],
      "payable": false,
      "stateMutability": "nonpayable",
      "type": "function"
    }
  ],
  "bytecode": "0x60806040523480156200001157600080fd5b506040516200296a3803806200296a83398181016040526200003791908101906200019d565b846000806101000a81548173ffffffffffffffffffffffffffffffffffffffff021916908373ffffffffffffffffffffffffffffffffffffffff16021790555083600160006101000a81548173ffffffffffffffffffffffffffffffffffffffff021916908373ffffffffffffffffffffffffffffffffffffffff16021790555082600260006101000a81548173ffffffffffffffffffffffffffffffffffffffff021916908373ffffffffffffffffffffffffffffffffffffffff16021790555081600360006101000a81548173ffffffffffffffffffffffffffffffffffffffff021916908373ffffffffffffffffffffffffffffffffffffffff16021790555080600460006101000a81548173ffffffffffffffffffffffffffffffffffffffff021916908373ffffffffffffffffffffffffffffffffffffffff16021790555050505050506200026d565b600081519050620001978162000253565b92915050565b600080600080600060a08688031215620001b657600080fd5b6000620001c68882890162000186565b9550506020620001d98882890162000186565b9450506040620001ec8882890162000186565b9350506060620001ff8882890162000186565b9250506080620002128882890162000186565b9150509295509295909350565b60006200022c8262000233565b9050919050565b600073ffffffffffffffffffffffffffffffffffffffff82169050919050565b6200025e816200021f565b81146200026a57600080fd5b50565b6126ed806200027d6000396000f3fe6080604052600436106100295760003560e01c80638b4187131461002b578063f7b967a014610054575b005b34801561003757600080fd5b50610052600480360361004d9190810190611991565b61007d565b005b34801561006057600080fd5b5061007b6004803603610076919081019061192e565b610e8a565b005b610085611566565b818060200190516100999190810190611a62565b90506000600360009054906101000a900473ffffffffffffffffffffffffffffffffffffffff1673ffffffffffffffffffffffffffffffffffffffff166370a08231306040518263ffffffff1660e01b81526004016100f89190612081565b60206040518083038186803b15801561011057600080fd5b505afa158015610124573d6000803e3d6000fd5b505050506040513d601f19601f820116820180604052506101489190810190611a8b565b9050600061012c420190506000600181111561016057fe5b8360000151600181111561017057fe5b14156106d557600360009054906101000a900473ffffffffffffffffffffffffffffffffffffffff1673ffffffffffffffffffffffffffffffffffffffff1663095ea7b36000809054906101000a900473ffffffffffffffffffffffffffffffffffffffff16846040518363ffffffff1660e01b81526004016101f492919061209c565b602060405180830381600087803b15801561020e57600080fd5b505af1158015610222573d6000803e3d6000fd5b505050506040513d601f19601f820116820180604052506102469190810190611a39565b610285576040517f08c379a000000000000000000000000000000000000000000000000000000000815260040161027c906121d3565b60405180910390fd5b60008060009054906101000a900473ffffffffffffffffffffffffffffffffffffffff1673ffffffffffffffffffffffffffffffffffffffff1663809a9e55600360009054906101000a900473ffffffffffffffffffffffffffffffffffffffff1673eeeeeeeeeeeeeeeeeeeeeeeeeeeeeeeeeeeeeeee866040518463ffffffff1660e01b815260040161031b939291906120fc565b604080518083038186803b15801561033257600080fd5b505afa158015610346573d6000803e3d6000fd5b505050506040513d601f19601f8201168201806040525061036a9190810190611ab4565b5090506000809054906101000a900473ffffffffffffffffffffffffffffffffffffffff1673ffffffffffffffffffffffffffffffffffffffff16633bba21dc600360009054906101000a900473ffffffffffffffffffffffffffffffffffffffff1685846040518463ffffffff1660e01b81526004016103ed9392919061215c565b602060405180830381600087803b15801561040757600080fd5b505af115801561041b573d6000803e3d6000fd5b505050506040513d601f19601f8201168201806040525061043f9190810190611a8b565b50606060026040519080825280602002602001820160405280156104725781602001602082028038833980820191505090505b509050600260009054906101000a900473ffffffffffffffffffffffffffffffffffffffff16816000815181106104a557fe5b602002602001019073ffffffffffffffffffffffffffffffffffffffff16908173ffffffffffffffffffffffffffffffffffffffff1681525050600360009054906101000a900473ffffffffffffffffffffffffffffffffffffffff168160018151811061050f57fe5b602002602001019073ffffffffffffffffffffffffffffffffffffffff16908173ffffffffffffffffffffffffffffffffffffffff16815250506060600160009054906101000a900473ffffffffffffffffffffffffffffffffffffffff1673ffffffffffffffffffffffffffffffffffffffff1663d06ca61f47846040518363ffffffff1660e01b81526004016105a8929190612269565b60006040518083038186803b1580156105c057600080fd5b505afa1580156105d4573d6000803e3d6000fd5b505050506040513d6000823e3d601f19601f820116820180604052506105fd91908101906119f8565b9050600160009054906101000a900473ffffffffffffffffffffffffffffffffffffffff1673ffffffffffffffffffffffffffffffffffffffff16637ff36ab5478360018151811061064b57fe5b60200260200101518530896040518663ffffffff1660e01b81526004016106759493929190612299565b6000604051808303818588803b15801561068e57600080fd5b505af11580156106a2573d6000803e3d6000fd5b50505050506040513d6000823e3d601f19601f820116820180604052506106cc91908101906119f8565b50505050610c31565b600360009054906101000a900473ffffffffffffffffffffffffffffffffffffffff1673ffffffffffffffffffffffffffffffffffffffff1663095ea7b3600160009054906101000a900473ffffffffffffffffffffffffffffffffffffffff16846040518363ffffffff1660e01b815260040161075492919061209c565b602060405180830381600087803b15801561076e57600080fd5b505af1158015610782573d6000803e3d6000fd5b505050506040513d601f19601f820116820180604052506107a69190810190611a39565b6107e5576040517f08c379a00000000000000000000000000000000000000000000000000000000081526004016107dc906121d3565b60405180910390fd5b606060026040519080825280602002602001820160405280156108175781602001602082028038833980820191505090505b509050600360009054906101000a900473ffffffffffffffffffffffffffffffffffffffff168160008151811061084a57fe5b602002602001019073ffffffffffffffffffffffffffffffffffffffff16908173ffffffffffffffffffffffffffffffffffffffff1681525050600260009054906101000a900473ffffffffffffffffffffffffffffffffffffffff16816001815181106108b457fe5b602002602001019073ffffffffffffffffffffffffffffffffffffffff16908173ffffffffffffffffffffffffffffffffffffffff16815250506060600160009054906101000a900473ffffffffffffffffffffffffffffffffffffffff1673ffffffffffffffffffffffffffffffffffffffff1663d06ca61f85846040518363ffffffff1660e01b815260040161094d929190612269565b60006040518083038186803b15801561096557600080fd5b505afa158015610979573d6000803e3d6000fd5b505050506040513d6000823e3d601f19601f820116820180604052506109a291908101906119f8565b9050600160009054906101000a900473ffffffffffffffffffffffffffffffffffffffff1673ffffffffffffffffffffffffffffffffffffffff166318cbafe585836001815181106109f057fe5b60200260200101518530886040518663ffffffff1660e01b8152600401610a1b9594939291906122e5565b600060405180830381600087803b158015610a3557600080fd5b505af1158015610a49573d6000803e3d6000fd5b505050506040513d6000823e3d601f19601f82011682018060405250610a7291908101906119f8565b5060008060009054906101000a900473ffffffffffffffffffffffffffffffffffffffff1673ffffffffffffffffffffffffffffffffffffffff1663809a9e5573eeeeeeeeeeeeeeeeeeeeeeeeeeeeeeeeeeeeeeee600360009054906101000a900473ffffffffffffffffffffffffffffffffffffffff16476040518463ffffffff1660e01b8152600401610b09939291906120fc565b604080518083038186803b158015610b2057600080fd5b505afa158015610b34573d6000803e3d6000fd5b505050506040513d601f19601f82011682018060405250610b589190810190611ab4565b5090506000809054906101000a900473ffffffffffffffffffffffffffffffffffffffff1673ffffffffffffffffffffffffffffffffffffffff16637a2a045647600360009054906101000a900473ffffffffffffffffffffffffffffffffffffffff16846040518463ffffffff1660e01b8152600401610bda929190612133565b6020604051808303818588803b158015610bf357600080fd5b505af1158015610c07573d6000803e3d6000fd5b50505050506040513d601f19601f82011682018060405250610c2c9190810190611a8b565b505050505b600360009054906101000a900473ffffffffffffffffffffffffffffffffffffffff1673ffffffffffffffffffffffffffffffffffffffff166370a08231306040518263ffffffff1660e01b8152600401610c8c9190612081565b60206040518083038186803b158015610ca457600080fd5b505afa158015610cb8573d6000803e3d6000fd5b505050506040513d601f19601f82011682018060405250610cdc9190810190611a8b565b91506000836020015183031015610d28576040517f08c379a0000000000000000000000000000000000000000000000000000000008152600401610d1f906121b3565b60405180910390fd5b6000836020015183039050600360009054906101000a900473ffffffffffffffffffffffffffffffffffffffff1673ffffffffffffffffffffffffffffffffffffffff1663a9059cbb600460009054906101000a900473ffffffffffffffffffffffffffffffffffffffff16836040518363ffffffff1660e01b8152600401610db292919061209c565b602060405180830381600087803b158015610dcc57600080fd5b505af1158015610de0573d6000803e3d6000fd5b505050506040513d601f19601f82011682018060405250610e049190810190611a39565b610e43576040517f08c379a0000000000000000000000000000000000000000000000000000000008152600401610e3a90612213565b60405180910390fd5b428185600001516001811115610e5557fe5b7fa89b78c8d1240154beaf4b865d2d7cb794ac0f358c618aef3de102cf4a4ee42d60405160405180910390a450505050505050565b6000610e9685856110ed565b90506000610ea38461129f565b90508473ffffffffffffffffffffffffffffffffffffffff1663095ea7b387836040518363ffffffff1660e01b8152600401610ee092919061209c565b602060405180830381600087803b158015610efa57600080fd5b505af1158015610f0e573d6000803e3d6000fd5b505050506040513d601f19601f82011682018060405250610f329190810190611a39565b5060606003604051908082528060200260200182016040528015610f7057816020015b610f5d61158b565b815260200190600190039081610f555790505b509050610f7d83866112bc565b81600081518110610f8a57fe5b6020026020010181905250610fdc6040518060400160405280866001811115610faf57fe5b815260200184815250604051602001610fc89190612233565b604051602081830303815290604052611375565b81600181518110610fe957fe5b6020026020010181905250610ffe838361141f565b8160028151811061100b57fe5b60200260200101819052506060600160405190808252806020026020018201604052801561105357816020015b6110406115f7565b8152602001906001900390816110385790505b50905061105e6114d8565b8160008151811061106b57fe5b60200260200101819052508773ffffffffffffffffffffffffffffffffffffffff1663a67a6a4582846040518363ffffffff1660e01b81526004016110b19291906120c5565b600060405180830381600087803b1580156110cb57600080fd5b505af11580156110df573d6000803e3d6000fd5b505050505050505050505050565b60008083905060008173ffffffffffffffffffffffffffffffffffffffff1663295c39a56040518163ffffffff1660e01b815260040160206040518083038186803b15801561113b57600080fd5b505afa15801561114f573d6000803e3d6000fd5b505050506040513d601f19601f820116820180604052506111739190810190611a8b565b9050600080600090505b8281101561125d578373ffffffffffffffffffffffffffffffffffffffff1663062bd3e9826040518263ffffffff1660e01b81526004016111be919061224e565b60206040518083038186803b1580156111d657600080fd5b505afa1580156111ea573d6000803e3d6000fd5b505050506040513d601f19601f8201168201806040525061120e9190810190611905565b91508573ffffffffffffffffffffffffffffffffffffffff168273ffffffffffffffffffffffffffffffffffffffff1614156112505780945050505050611299565b808060010191505061117d565b506040517f08c379a0000000000000000000000000000000000000000000000000000000008152600401611290906121f3565b60405180910390fd5b92915050565b60006112b560028361151190919063ffffffff16565b9050919050565b6112c4611627565b604051806101000160405280600160088111156112dd57fe5b81526020016000815260200160405180608001604052806000151581526020016000600181111561130a57fe5b81526020016000600181111561131c57fe5b8152602001858152508152602001848152602001600081526020013073ffffffffffffffffffffffffffffffffffffffff1681526020016000815260200160405180602001604052806000815250815250905092915050565b61137d611627565b60405180610100016040528060088081111561139557fe5b8152602001600081526020016040518060800160405280600015158152602001600060018111156113c257fe5b8152602001600060018111156113d457fe5b81526020016000815250815260200160008152602001600081526020013073ffffffffffffffffffffffffffffffffffffffff16815260200160008152602001838152509050919050565b611427611627565b6040518061010001604052806000600881111561144057fe5b81526020016000815260200160405180608001604052806001151581526020016000600181111561146d57fe5b81526020016000600181111561147f57fe5b8152602001858152508152602001848152602001600081526020013073ffffffffffffffffffffffffffffffffffffffff1681526020016000815260200160405180602001604052806000815250815250905092915050565b6114e0611693565b60405180604001604052803073ffffffffffffffffffffffffffffffffffffffff1681526020016001815250905090565b60008082840190508381101561155c576040517f08c379a000000000000000000000000000000000000000000000000000000000815260040161155390612193565b60405180910390fd5b8091505092915050565b60405180604001604052806000600181111561157e57fe5b8152602001600081525090565b604051806101000160405280600060088111156115a457fe5b8152602001600081526020016115b86116c3565b81526020016000815260200160008152602001600073ffffffffffffffffffffffffffffffffffffffff16815260200160008152602001606081525090565b6040518060400160405280600073ffffffffffffffffffffffffffffffffffffffff168152602001600081525090565b6040518061010001604052806000600881111561164057fe5b8152602001600081526020016116546116c3565b81526020016000815260200160008152602001600073ffffffffffffffffffffffffffffffffffffffff16815260200160008152602001606081525090565b6040518060400160405280600073ffffffffffffffffffffffffffffffffffffffff168152602001600081525090565b6040518060800160405280600015158152602001600060018111156116e457fe5b8152602001600060018111156116f657fe5b8152602001600081525090565b60008135905061171281612655565b92915050565b60008151905061172781612655565b92915050565b600082601f83011261173e57600080fd5b815161175161174c8261236c565b61233f565b9150818183526020840193506020810190508385602084028201111561177657600080fd5b60005b838110156117a6578161178c88826118f0565b845260208401935060208301925050600181019050611779565b5050505092915050565b6000815190506117bf8161266c565b92915050565b600082601f8301126117d657600080fd5b81356117e96117e482612394565b61233f565b9150808252602083016020830185838301111561180557600080fd5b6118108382846125ce565b50505092915050565b60008135905061182881612683565b92915050565b60008151905061183d81612683565b92915050565b60006040828403121561185557600080fd5b61185f604061233f565b9050600061186f8482850161182e565b6000830152506020611883848285016118f0565b60208301525092915050565b6000604082840312156118a157600080fd5b6118ab604061233f565b905060006118bb84828501611703565b60008301525060206118cf848285016118db565b60208301525092915050565b6000813590506118ea81612693565b92915050565b6000815190506118ff81612693565b92915050565b60006020828403121561191757600080fd5b600061192584828501611718565b91505092915050565b6000806000806080858703121561194457600080fd5b600061195287828801611703565b945050602061196387828801611703565b9350506040611974878288016118db565b925050606061198587828801611819565b91505092959194509250565b6000806000608084860312156119a657600080fd5b60006119b486828701611703565b93505060206119c58682870161188f565b925050606084013567ffffffffffffffff8111156119e257600080fd5b6119ee868287016117c5565b9150509250925092565b600060208284031215611a0a57600080fd5b600082015167ffffffffffffffff811115611a2457600080fd5b611a308482850161172d565b91505092915050565b600060208284031215611a4b57600080fd5b6000611a59848285016117b0565b91505092915050565b600060408284031215611a7457600080fd5b6000611a8284828501611843565b91505092915050565b600060208284031215611a9d57600080fd5b6000611aab848285016118f0565b91505092915050565b60008060408385031215611ac757600080fd5b6000611ad5858286016118f0565b9250506020611ae6858286016118f0565b9150509250929050565b6000611afc8383611b43565b60208301905092915050565b6000611b148383611efd565b905092915050565b6000611b288383612034565b60408301905092915050565b611b3d8161252c565b82525050565b611b4c81612498565b82525050565b611b5b81612498565b82525050565b6000611b6c826123f0565b611b768185612443565b9350611b81836123c0565b8060005b83811015611bb2578151611b998882611af0565b9750611ba48361241c565b925050600181019050611b85565b5085935050505092915050565b6000611bca826123fb565b611bd48185612454565b935083602082028501611be6856123d0565b8060005b85811015611c225784840389528151611c038582611b08565b9450611c0e83612429565b925060208a01995050600181019050611bea565b50829750879550505050505092915050565b6000611c3f82612406565b611c498185612465565b9350611c54836123e0565b8060005b83811015611c85578151611c6c8882611b1c565b9750611c7783612436565b925050600181019050611c58565b5085935050505092915050565b611c9b816124aa565b82525050565b6000611cac82612411565b611cb68185612476565b9350611cc68185602086016125dd565b611ccf81612610565b840191505092915050565b611ce38161253e565b82525050565b611cf281612562565b82525050565b611d0181612574565b82525050565b611d1081612586565b82525050565b611d1f81612598565b82525050565b6000611d32601b83612487565b91507f536166654d6174683a206164646974696f6e206f766572666c6f7700000000006000830152602082019050919050565b6000611d72602483612487565b91507f4e6f7420656e6f7567682066756e647320746f2072657061792064796478206c60008301527f6f616e21000000000000000000000000000000000000000000000000000000006020830152604082019050919050565b6000611dd8602583612487565b91507f436f756c64206e6f7420617070726f766520726573657276652061737365742060008301527f73656c6c210000000000000000000000000000000000000000000000000000006020830152604082019050919050565b6000611e3e602483612487565b91507f4e6f206d61726b6574496420666f756e6420666f722070726f7669646564207460008301527f6f6b656e000000000000000000000000000000000000000000000000000000006020830152604082019050919050565b6000611ea4602383612487565b91507f436f756c64206e6f74207472616e73666572206261636b207468652070726f6660008301527f69742100000000000000000000000000000000000000000000000000000000006020830152604082019050919050565b600061016083016000830151611f166000860182611ce9565b506020830151611f296020860182612063565b506040830151611f3c6040860182611fdf565b506060830151611f4f60c0860182612063565b506080830151611f6260e0860182612063565b5060a0830151611f76610100860182611b43565b5060c0830151611f8a610120860182612063565b5060e0830151848203610140860152611fa38282611ca1565b9150508091505092915050565b604082016000820151611fc66000850182611d16565b506020820151611fd96020850182612063565b50505050565b608082016000820151611ff56000850182611c92565b5060208201516120086020850182611cf8565b50604082015161201b6040850182611d07565b50606082015161202e6060850182612063565b50505050565b60408201600082015161204a6000850182611b43565b50602082015161205d6020850182612063565b50505050565b61206c81612522565b82525050565b61207b81612522565b82525050565b60006020820190506120966000830184611b34565b92915050565b60006040820190506120b16000830185611b52565b6120be6020830184612072565b9392505050565b600060408201905081810360008301526120df8185611c34565b905081810360208301526120f38184611bbf565b90509392505050565b60006060820190506121116000830186611cda565b61211e6020830185611cda565b61212b6040830184612072565b949350505050565b60006040820190506121486000830185611cda565b6121556020830184612072565b9392505050565b60006060820190506121716000830186611cda565b61217e6020830185612072565b61218b6040830184612072565b949350505050565b600060208201905081810360008301526121ac81611d25565b9050919050565b600060208201905081810360008301526121cc81611d65565b9050919050565b600060208201905081810360008301526121ec81611dcb565b9050919050565b6000602082019050818103600083015261220c81611e31565b9050919050565b6000602082019050818103600083015261222c81611e97565b9050919050565b60006040820190506122486000830184611fb0565b92915050565b60006020820190506122636000830184612072565b92915050565b600060408201905061227e6000830185612072565b81810360208301526122908184611b61565b90509392505050565b60006080820190506122ae6000830187612072565b81810360208301526122c08186611b61565b90506122cf6040830185611b34565b6122dc6060830184612072565b95945050505050565b600060a0820190506122fa6000830188612072565b6123076020830187612072565b81810360408301526123198186611b61565b90506123286060830185611b34565b6123356080830184612072565b9695505050505050565b6000604051905081810181811067ffffffffffffffff8211171561236257600080fd5b8060405250919050565b600067ffffffffffffffff82111561238357600080fd5b602082029050602081019050919050565b600067ffffffffffffffff8211156123ab57600080fd5b601f19601f8301169050602081019050919050565b6000819050602082019050919050565b6000819050602082019050919050565b6000819050602082019050919050565b600081519050919050565b600081519050919050565b600081519050919050565b600081519050919050565b6000602082019050919050565b6000602082019050919050565b6000602082019050919050565b600082825260208201905092915050565b600082825260208201905092915050565b600082825260208201905092915050565b600082825260208201905092915050565b600082825260208201905092915050565b60006124a382612502565b9050919050565b60008115159050919050565b60008190506124c482612621565b919050565b60008190506124d78261262e565b919050565b60008190506124ea8261263b565b919050565b60008190506124fd82612648565b919050565b600073ffffffffffffffffffffffffffffffffffffffff82169050919050565b6000819050919050565b6000612537826125aa565b9050919050565b600061254982612550565b9050919050565b600061255b82612502565b9050919050565b600061256d826124b6565b9050919050565b600061257f826124c9565b9050919050565b6000612591826124dc565b9050919050565b60006125a3826124ef565b9050919050565b60006125b5826125bc565b9050919050565b60006125c782612502565b9050919050565b82818337600083830152505050565b60005b838110156125fb5780820151818401526020810190506125e0565b8381111561260a576000848401525b50505050565b6000601f19601f8301169050919050565b6009811061262b57fe5b50565b6002811061263857fe5b50565b6002811061264557fe5b50565b6002811061265257fe5b50565b61265e81612498565b811461266957600080fd5b50565b612675816124aa565b811461268057600080fd5b50565b6002811061269057600080fd5b50565b61269c81612522565b81146126a757600080fd5b5056fea365627a7a72315820e2191adb782c6df6bcae48fa1f5bbbcc30e5f424173959257bc0d1236f5408c06c6578706572696d656e74616cf564736f6c63430005100040",
  "source": "// SPDX-License-Identifier: ISC\npragma solidity ^0.5.0;\npragma experimental ABIEncoderV2;\n\nimport \"@studydefi/money-legos/dydx/contracts/DydxFlashloanBase.sol\";\nimport \"@studydefi/money-legos/dydx/contracts/ICallee.sol\";\nimport {KyberNetworkProxy as IKyberNetworkProxy} from \"@studydefi/money-legos/kyber/contracts/KyberNetworkProxy.sol\";\n\nimport \"@openzeppelin/contracts/token/ERC20/IERC20.sol\";\nimport \"./IUniswapV2Router02.sol\";\nimport \"./IWeth.sol\";\n\ncontract Flashloan is ICallee, DydxFlashloanBase {\n  enum Direction {KyberToUniswap, UniswapToKyber}\n  struct ArbInfo {\n    Direction direction;\n    uint256 repayAmount;\n  }\n\n  event NewArbitrage(Direction indexed direction, uint256 indexed profit, uint256 indexed date);\n\n  // events for debugging\n  // event GetMinOuts(uint256 indexed minOut1, uint256 indexed minOut2);\n\n  IKyberNetworkProxy kyber;\n  IUniswapV2Router02 uniswap;\n  IWeth weth;\n  IERC20 dai;\n  address beneficiary;\n  address constant KYBER_ETH_ADDRESS = 0xEeeeeEeeeEeEeeEeEeEeeEEEeeeeEeeeeeeeEEeE;\n\n  constructor(\n    address kyberAddress,\n    address uniswapAddress,\n    address wethAddress,\n    address daiAddress,\n    address beneficiaryAddress\n  ) public {\n    kyber = IKyberNetworkProxy(kyberAddress);\n    uniswap = IUniswapV2Router02(uniswapAddress);\n    weth = IWeth(wethAddress);\n    dai = IERC20(daiAddress);\n    beneficiary = beneficiaryAddress;\n  }\n\n  // This is the function that will be called postLoan\n  // i.e. Encode the logic to handle your flashloaned funds here\n  function callFunction(\n    address sender,\n    Account.Info memory account,\n    bytes memory data\n  ) public {\n    ArbInfo memory arbInfo = abi.decode(data, (ArbInfo));\n    uint256 balanceDai = dai.balanceOf(address(this));\n    uint256 deadline = now + 300;\n\n    if (arbInfo.direction == Direction.KyberToUniswap) {\n      // Buy ETH from Kyber\n      require(dai.approve(address(kyber), balanceDai), \"Could not approve reserve asset sell!\");\n      (uint256 expectedRate, ) = kyber.getExpectedRate(dai, IERC20(KYBER_ETH_ADDRESS), balanceDai);\n      kyber.swapTokenToEther(dai, balanceDai, expectedRate);\n\n      // Sell ETH to Uniswap\n      address[] memory path = new address[](2);\n      path[0] = address(weth);\n      path[1] = address(dai);\n\n      // https://uniswap.org/docs/v2/smart-contracts/library#getamountsout\n      // Given an input asset amount and an array of token addresses, calculates all subsequent maximum output token amounts\n      uint256[] memory minOuts = uniswap.getAmountsOut(address(this).balance, path);\n\n      // https://uniswap.org/docs/v2/smart-contracts/router02/\n      // Swaps an exact amount of ETH for as many output tokens as possible, along the route determined by the path.\n      // The first element of path must be WETH, the last is the output token\n      uniswap.swapExactETHForTokens.value(address(this).balance)(minOuts[1], path, address(this), deadline);\n    } else {\n      // Buy ETH from Uniswap\n      require(dai.approve(address(uniswap), balanceDai), \"Could not approve reserve asset sell!\");\n      address[] memory path = new address[](2);\n      path[0] = address(dai);\n      path[1] = address(weth);\n      uint256[] memory minOuts = uniswap.getAmountsOut(balanceDai, path);\n      uniswap.swapExactTokensForETH(balanceDai, minOuts[1], path, address(this), deadline);\n      // Sell ETH to Kyber\n      (uint256 expectedRate, ) = kyber.getExpectedRate(IERC20(KYBER_ETH_ADDRESS), dai, address(this).balance);\n      kyber.swapEtherToToken.value(address(this).balance)(dai, expectedRate);\n    }\n\n    balanceDai = dai.balanceOf(address(this));\n    require(balanceDai - arbInfo.repayAmount >= 0, \"Not enough funds to repay dydx loan!\");\n\n    uint256 profit = balanceDai - arbInfo.repayAmount;\n    require(dai.transfer(beneficiary, profit), \"Could not transfer back the profit!\");\n\n    emit NewArbitrage(arbInfo.direction, profit, now);\n  }\n\n  function initateFlashLoan(\n    address _solo,\n    address _token,\n    uint256 _amount,\n    Direction _direction\n  ) external {\n    // Get marketId from token address\n    uint256 marketId = _getMarketIdFromTokenAddress(_solo, _token);\n\n    // Calculate repay amount (_amount + (2 wei))\n    // Approve transfer from\n    uint256 repayAmount = _getRepaymentAmountInternal(_amount);\n    IERC20(_token).approve(_solo, repayAmount);\n\n    // 1. Withdraw $\n    // 2. Call callFunction(...)\n    // 3. Deposit back $\n    Actions.ActionArgs[] memory operations = new Actions.ActionArgs[](3);\n\n    operations[0] = _getWithdrawAction(marketId, _amount);\n    operations[1] = _getCallAction(\n      // Encode MyCustomData for callFunction\n      abi.encode(ArbInfo({direction: _direction, repayAmount: repayAmount}))\n    );\n    operations[2] = _getDepositAction(marketId, repayAmount);\n\n    Account.Info[] memory accountInfos = new Account.Info[](1);\n    accountInfos[0] = _getAccountInfo();\n\n    ISoloMargin(_solo).operate(accountInfos, operations);\n  }\n\n  // Add payable function to be able to receive ETH from Uniswap / Kyber\n  function() external payable {}\n}\n",
  "sourcePath": "/home/min/Projects/lx/src/github.com/ilovelili/flashloan/contracts/Flashloan.sol",
  "compiler": {
    "name": "solc",
    "version": "0.5.16+commit.9c3226ce.Emscripten.clang"
  },
  "schemaVersion": "3.1.0",
  "updatedAt": "2020-08-15T06:34:59.957Z",
  "devdoc": {
    "methods": {}
  },
  "userdoc": {
    "methods": {}
  }
}