{
  "contractName": "Flashloan",
  "abi": [
    {
      "inputs": [
        {
          "internalType": "address",
          "name": "kyberAddress",
          "type": "address"
        },
        {
          "internalType": "address",
          "name": "uniswapAddress",
          "type": "address"
        },
        {
          "internalType": "address",
          "name": "wethAddress",
          "type": "address"
        },
        {
          "internalType": "address",
          "name": "beneficiaryAddress",
          "type": "address"
        }
      ],
      "payable": false,
      "stateMutability": "nonpayable",
      "type": "constructor"
    },
    {
      "anonymous": false,
      "inputs": [
        {
          "indexed": true,
          "internalType": "enum Flashloan.Direction",
          "name": "direction",
          "type": "uint8"
        },
        {
          "indexed": true,
          "internalType": "address",
          "name": "token1",
          "type": "address"
        },
        {
          "indexed": true,
          "internalType": "address",
          "name": "token2",
          "type": "address"
        },
        {
          "indexed": false,
          "internalType": "uint256",
          "name": "profit",
          "type": "uint256"
        },
        {
          "indexed": false,
          "internalType": "uint256",
          "name": "date",
          "type": "uint256"
        }
      ],
      "name": "NewArbitrage",
      "type": "event"
    },
    {
      "payable": true,
      "stateMutability": "payable",
      "type": "fallback"
    },
    {
      "constant": false,
      "inputs": [
        {
          "internalType": "address",
          "name": "sender",
          "type": "address"
        },
        {
          "components": [
            {
              "internalType": "address",
              "name": "owner",
              "type": "address"
            },
            {
              "internalType": "uint256",
              "name": "number",
              "type": "uint256"
            }
          ],
          "internalType": "struct Account.Info",
          "name": "account",
          "type": "tuple"
        },
        {
          "internalType": "bytes",
          "name": "data",
          "type": "bytes"
        }
      ],
      "name": "callFunction",
      "outputs": [],
      "payable": false,
      "stateMutability": "nonpayable",
      "type": "function"
    },
    {
      "constant": false,
      "inputs": [
        {
          "internalType": "address",
          "name": "_solo",
          "type": "address"
        },
        {
          "internalType": "uint256",
          "name": "_amount",
          "type": "uint256"
        },
        {
          "internalType": "address",
          "name": "_token1",
          "type": "address"
        },
        {
          "internalType": "address",
          "name": "_token2",
          "type": "address"
        },
        {
          "internalType": "enum Flashloan.Direction",
          "name": "_direction",
          "type": "uint8"
        }
      ],
      "name": "initateFlashLoan",
      "outputs": [],
      "payable": false,
      "stateMutability": "nonpayable",
      "type": "function"
    }
  ],
  "bytecode": "0x60806040523480156200001157600080fd5b506040516200389e3803806200389e83398181016040526200003791908101906200015b565b836000806101000a81548173ffffffffffffffffffffffffffffffffffffffff021916908373ffffffffffffffffffffffffffffffffffffffff16021790555082600160006101000a81548173ffffffffffffffffffffffffffffffffffffffff021916908373ffffffffffffffffffffffffffffffffffffffff16021790555081600260006101000a81548173ffffffffffffffffffffffffffffffffffffffff021916908373ffffffffffffffffffffffffffffffffffffffff16021790555080600360006101000a81548173ffffffffffffffffffffffffffffffffffffffff021916908373ffffffffffffffffffffffffffffffffffffffff1602179055505050505062000215565b6000815190506200015581620001fb565b92915050565b600080600080608085870312156200017257600080fd5b6000620001828782880162000144565b9450506020620001958782880162000144565b9350506040620001a88782880162000144565b9250506060620001bb8782880162000144565b91505092959194509250565b6000620001d482620001db565b9050919050565b600073ffffffffffffffffffffffffffffffffffffffff82169050919050565b6200020681620001c7565b81146200021257600080fd5b50565b61367980620002256000396000f3fe6080604052600436106100295760003560e01c80638b4187131461002b578063922c8d8114610054575b005b34801561003757600080fd5b50610052600480360361004d9190810190612514565b61007d565b005b34801561006057600080fd5b5061007b6004803603610076919081019061257b565b6119d5565b005b6100856120ea565b81806020019051610099919081019061265c565b905060008160200151905060008260400151905060008273ffffffffffffffffffffffffffffffffffffffff166370a08231306040518263ffffffff1660e01b81526004016100e89190612edf565b60206040518083038186803b15801561010057600080fd5b505afa158015610114573d6000803e3d6000fd5b505050506040513d601f19601f820116820180604052506101389190810190612685565b9050600061012c420190506000600381111561015057fe5b8560000151600381111561016057fe5b148061018657506001600381111561017457fe5b8560000151600381111561018457fe5b145b806101ab57506002600381111561019957fe5b856000015160038111156101a957fe5b145b806101cf57506003808111156101bd57fe5b856000015160038111156101cd57fe5b145b61020e576040517f08c379a000000000000000000000000000000000000000000000000000000000815260040161020590613096565b60405180910390fd5b6000600381111561021b57fe5b8560000151600381111561022b57fe5b1415610704578373ffffffffffffffffffffffffffffffffffffffff1663095ea7b36000809054906101000a900473ffffffffffffffffffffffffffffffffffffffff16846040518363ffffffff1660e01b815260040161028d929190612efa565b602060405180830381600087803b1580156102a757600080fd5b505af11580156102bb573d6000803e3d6000fd5b505050506040513d601f19601f820116820180604052506102df9190810190612633565b61031e576040517f08c379a000000000000000000000000000000000000000000000000000000000815260040161031590613116565b60405180910390fd5b60008060009054906101000a900473ffffffffffffffffffffffffffffffffffffffff1673ffffffffffffffffffffffffffffffffffffffff1663809a9e558673eeeeeeeeeeeeeeeeeeeeeeeeeeeeeeeeeeeeeeee866040518463ffffffff1660e01b815260040161039293929190612f5a565b604080518083038186803b1580156103a957600080fd5b505afa1580156103bd573d6000803e3d6000fd5b505050506040513d601f19601f820116820180604052506103e191908101906126ae565b5090506000809054906101000a900473ffffffffffffffffffffffffffffffffffffffff1673ffffffffffffffffffffffffffffffffffffffff16633bba21dc8685846040518463ffffffff1660e01b815260040161044293929190612fff565b602060405180830381600087803b15801561045c57600080fd5b505af1158015610470573d6000803e3d6000fd5b505050506040513d601f19601f820116820180604052506104949190810190612685565b50606060026040519080825280602002602001820160405280156104c75781602001602082028038833980820191505090505b509050600260009054906101000a900473ffffffffffffffffffffffffffffffffffffffff16816000815181106104fa57fe5b602002602001019073ffffffffffffffffffffffffffffffffffffffff16908173ffffffffffffffffffffffffffffffffffffffff1681525050858160018151811061054257fe5b602002602001019073ffffffffffffffffffffffffffffffffffffffff16908173ffffffffffffffffffffffffffffffffffffffff16815250506060600160009054906101000a900473ffffffffffffffffffffffffffffffffffffffff1673ffffffffffffffffffffffffffffffffffffffff1663d06ca61f47846040518363ffffffff1660e01b81526004016105db9291906131cc565b60006040518083038186803b1580156105f357600080fd5b505afa158015610607573d6000803e3d6000fd5b505050506040513d6000823e3d601f19601f8201168201806040525061063091908101906125f2565b9050600160009054906101000a900473ffffffffffffffffffffffffffffffffffffffff1673ffffffffffffffffffffffffffffffffffffffff16637ff36ab5478360018151811061067e57fe5b60200260200101518530896040518663ffffffff1660e01b81526004016106a894939291906131fc565b6000604051808303818588803b1580156106c157600080fd5b505af11580156106d5573d6000803e3d6000fd5b50505050506040513d6000823e3d601f19601f820116820180604052506106ff91908101906125f2565b505050505b6001600381111561071157fe5b8560000151600381111561072157fe5b1415610bfb578373ffffffffffffffffffffffffffffffffffffffff1663095ea7b3600160009054906101000a900473ffffffffffffffffffffffffffffffffffffffff16846040518363ffffffff1660e01b8152600401610784929190612efa565b602060405180830381600087803b15801561079e57600080fd5b505af11580156107b2573d6000803e3d6000fd5b505050506040513d601f19601f820116820180604052506107d69190810190612633565b610815576040517f08c379a000000000000000000000000000000000000000000000000000000000815260040161080c906130b6565b60405180910390fd5b606060026040519080825280602002602001820160405280156108475781602001602082028038833980820191505090505b509050848160008151811061085857fe5b602002602001019073ffffffffffffffffffffffffffffffffffffffff16908173ffffffffffffffffffffffffffffffffffffffff1681525050600260009054906101000a900473ffffffffffffffffffffffffffffffffffffffff16816001815181106108c257fe5b602002602001019073ffffffffffffffffffffffffffffffffffffffff16908173ffffffffffffffffffffffffffffffffffffffff16815250506060600160009054906101000a900473ffffffffffffffffffffffffffffffffffffffff1673ffffffffffffffffffffffffffffffffffffffff1663d06ca61f85846040518363ffffffff1660e01b815260040161095b9291906131cc565b60006040518083038186803b15801561097357600080fd5b505afa158015610987573d6000803e3d6000fd5b505050506040513d6000823e3d601f19601f820116820180604052506109b091908101906125f2565b9050600160009054906101000a900473ffffffffffffffffffffffffffffffffffffffff1673ffffffffffffffffffffffffffffffffffffffff166318cbafe585836001815181106109fe57fe5b60200260200101518530886040518663ffffffff1660e01b8152600401610a29959493929190613271565b600060405180830381600087803b158015610a4357600080fd5b505af1158015610a57573d6000803e3d6000fd5b505050506040513d6000823e3d601f19601f82011682018060405250610a8091908101906125f2565b5060008060009054906101000a900473ffffffffffffffffffffffffffffffffffffffff1673ffffffffffffffffffffffffffffffffffffffff1663809a9e5573eeeeeeeeeeeeeeeeeeeeeeeeeeeeeeeeeeeeeeee89476040518463ffffffff1660e01b8152600401610af593929190612f5a565b604080518083038186803b158015610b0c57600080fd5b505afa158015610b20573d6000803e3d6000fd5b505050506040513d601f19601f82011682018060405250610b4491908101906126ae565b5090506000809054906101000a900473ffffffffffffffffffffffffffffffffffffffff1673ffffffffffffffffffffffffffffffffffffffff16637a2a04564789846040518463ffffffff1660e01b8152600401610ba4929190612f91565b6020604051808303818588803b158015610bbd57600080fd5b505af1158015610bd1573d6000803e3d6000fd5b50505050506040513d601f19601f82011682018060405250610bf69190810190612685565b505050505b60026003811115610c0857fe5b85600001516003811115610c1857fe5b14156111b0578373ffffffffffffffffffffffffffffffffffffffff1663095ea7b36000809054906101000a900473ffffffffffffffffffffffffffffffffffffffff16846040518363ffffffff1660e01b8152600401610c7a929190612efa565b602060405180830381600087803b158015610c9457600080fd5b505af1158015610ca8573d6000803e3d6000fd5b505050506040513d601f19601f82011682018060405250610ccc9190810190612633565b610d0b576040517f08c379a0000000000000000000000000000000000000000000000000000000008152600401610d0290613176565b60405180910390fd5b60008060009054906101000a900473ffffffffffffffffffffffffffffffffffffffff1673ffffffffffffffffffffffffffffffffffffffff1663809a9e558686866040518463ffffffff1660e01b8152600401610d6b93929190612f5a565b604080518083038186803b158015610d8257600080fd5b505afa158015610d96573d6000803e3d6000fd5b505050506040513d601f19601f82011682018060405250610dba91908101906126ae565b50905060008060009054906101000a900473ffffffffffffffffffffffffffffffffffffffff1673ffffffffffffffffffffffffffffffffffffffff16637409e2eb878688866040518563ffffffff1660e01b8152600401610e1f9493929190612fba565b602060405180830381600087803b158015610e3957600080fd5b505af1158015610e4d573d6000803e3d6000fd5b505050506040513d601f19601f82011682018060405250610e719190810190612685565b90508473ffffffffffffffffffffffffffffffffffffffff1663095ea7b3600160009054906101000a900473ffffffffffffffffffffffffffffffffffffffff16836040518363ffffffff1660e01b8152600401610ed0929190612efa565b602060405180830381600087803b158015610eea57600080fd5b505af1158015610efe573d6000803e3d6000fd5b505050506040513d601f19601f82011682018060405250610f229190810190612633565b610f61576040517f08c379a0000000000000000000000000000000000000000000000000000000008152600401610f58906130d6565b60405180910390fd5b60606002604051908082528060200260200182016040528015610f935781602001602082028038833980820191505090505b5090508581600081518110610fa457fe5b602002602001019073ffffffffffffffffffffffffffffffffffffffff16908173ffffffffffffffffffffffffffffffffffffffff16815250508681600181518110610fec57fe5b602002602001019073ffffffffffffffffffffffffffffffffffffffff16908173ffffffffffffffffffffffffffffffffffffffff16815250506060600160009054906101000a900473ffffffffffffffffffffffffffffffffffffffff1673ffffffffffffffffffffffffffffffffffffffff1663d06ca61f84846040518363ffffffff1660e01b81526004016110859291906131cc565b60006040518083038186803b15801561109d57600080fd5b505afa1580156110b1573d6000803e3d6000fd5b505050506040513d6000823e3d601f19601f820116820180604052506110da91908101906125f2565b9050600160009054906101000a900473ffffffffffffffffffffffffffffffffffffffff1673ffffffffffffffffffffffffffffffffffffffff166338ed1739848360018151811061112857fe5b602002602001015185308a6040518663ffffffff1660e01b8152600401611153959493929190613271565b600060405180830381600087803b15801561116d57600080fd5b505af1158015611181573d6000803e3d6000fd5b505050506040513d6000823e3d601f19601f820116820180604052506111aa91908101906125f2565b50505050505b6003808111156111bc57fe5b856000015160038111156111cc57fe5b141561177e578373ffffffffffffffffffffffffffffffffffffffff1663095ea7b3600160009054906101000a900473ffffffffffffffffffffffffffffffffffffffff16846040518363ffffffff1660e01b815260040161122f929190612efa565b602060405180830381600087803b15801561124957600080fd5b505af115801561125d573d6000803e3d6000fd5b505050506040513d601f19601f820116820180604052506112819190810190612633565b6112c0576040517f08c379a00000000000000000000000000000000000000000000000000000000081526004016112b790613076565b60405180910390fd5b606060026040519080825280602002602001820160405280156112f25781602001602082028038833980820191505090505b509050848160008151811061130357fe5b602002602001019073ffffffffffffffffffffffffffffffffffffffff16908173ffffffffffffffffffffffffffffffffffffffff1681525050838160018151811061134b57fe5b602002602001019073ffffffffffffffffffffffffffffffffffffffff16908173ffffffffffffffffffffffffffffffffffffffff16815250506060600160009054906101000a900473ffffffffffffffffffffffffffffffffffffffff1673ffffffffffffffffffffffffffffffffffffffff1663d06ca61f85846040518363ffffffff1660e01b81526004016113e49291906131cc565b60006040518083038186803b1580156113fc57600080fd5b505afa158015611410573d6000803e3d6000fd5b505050506040513d6000823e3d601f19601f8201168201806040525061143991908101906125f2565b90506060600160009054906101000a900473ffffffffffffffffffffffffffffffffffffffff1673ffffffffffffffffffffffffffffffffffffffff166338ed1739868460018151811061148957fe5b60200260200101518630896040518663ffffffff1660e01b81526004016114b4959493929190613271565b600060405180830381600087803b1580156114ce57600080fd5b505af11580156114e2573d6000803e3d6000fd5b505050506040513d6000823e3d601f19601f8201168201806040525061150b91908101906125f2565b905060008160008151811061151c57fe5b602002602001015190508673ffffffffffffffffffffffffffffffffffffffff1663095ea7b36000809054906101000a900473ffffffffffffffffffffffffffffffffffffffff16836040518363ffffffff1660e01b8152600401611582929190612efa565b602060405180830381600087803b15801561159c57600080fd5b505af11580156115b0573d6000803e3d6000fd5b505050506040513d601f19601f820116820180604052506115d49190810190612633565b611613576040517f08c379a000000000000000000000000000000000000000000000000000000000815260040161160a90613136565b60405180910390fd5b60008060009054906101000a900473ffffffffffffffffffffffffffffffffffffffff1673ffffffffffffffffffffffffffffffffffffffff1663809a9e55898b856040518463ffffffff1660e01b815260040161167393929190612f5a565b604080518083038186803b15801561168a57600080fd5b505afa15801561169e573d6000803e3d6000fd5b505050506040513d601f19601f820116820180604052506116c291908101906126ae565b5090506000809054906101000a900473ffffffffffffffffffffffffffffffffffffffff1673ffffffffffffffffffffffffffffffffffffffff16637409e2eb89848c856040518563ffffffff1660e01b81526004016117259493929190612fba565b602060405180830381600087803b15801561173f57600080fd5b505af1158015611753573d6000803e3d6000fd5b505050506040513d601f19601f820116820180604052506117779190810190612685565b5050505050505b60008473ffffffffffffffffffffffffffffffffffffffff166370a08231306040518263ffffffff1660e01b81526004016117b99190612edf565b60206040518083038186803b1580156117d157600080fd5b505afa1580156117e5573d6000803e3d6000fd5b505050506040513d601f19601f820116820180604052506118099190810190612685565b905085606001518111611851576040517f08c379a000000000000000000000000000000000000000000000000000000000815260040161184890613056565b60405180910390fd5b60008660600151820390508573ffffffffffffffffffffffffffffffffffffffff1663a9059cbb600360009054906101000a900473ffffffffffffffffffffffffffffffffffffffff16836040518363ffffffff1660e01b81526004016118b9929190612efa565b602060405180830381600087803b1580156118d357600080fd5b505af11580156118e7573d6000803e3d6000fd5b505050506040513d601f19601f8201168201806040525061190b9190810190612633565b61194a576040517f08c379a000000000000000000000000000000000000000000000000000000000815260040161194190613156565b60405180910390fd5b866040015173ffffffffffffffffffffffffffffffffffffffff16876020015173ffffffffffffffffffffffffffffffffffffffff168860000151600381111561199057fe5b7f11e944aca3539ba70760461542172892c68b0d8afb8f8eaf5aa7371d240ab5f284426040516119c1929190613248565b60405180910390a450505050505050505050565b60006119e18685611c71565b905060006119ee86611e23565b90508473ffffffffffffffffffffffffffffffffffffffff1663095ea7b388836040518363ffffffff1660e01b8152600401611a2b929190612efa565b602060405180830381600087803b158015611a4557600080fd5b505af1158015611a59573d6000803e3d6000fd5b505050506040513d601f19601f82011682018060405250611a7d9190810190612633565b5060606003604051908082528060200260200182016040528015611abb57816020015b611aa8612149565b815260200190600190039081611aa05790505b509050611ac88388611e40565b81600081518110611ad557fe5b6020026020010181905250611b5f6040518060800160405280866003811115611afa57fe5b81526020018873ffffffffffffffffffffffffffffffffffffffff1681526020018773ffffffffffffffffffffffffffffffffffffffff16815260200184815250604051602001611b4b9190613196565b604051602081830303815290604052611ef9565b81600181518110611b6c57fe5b6020026020010181905250611b818383611fa3565b81600281518110611b8e57fe5b602002602001018190525060606001604051908082528060200260200182016040528015611bd657816020015b611bc36121b5565b815260200190600190039081611bbb5790505b509050611be161205c565b81600081518110611bee57fe5b60200260200101819052508873ffffffffffffffffffffffffffffffffffffffff1663a67a6a4582846040518363ffffffff1660e01b8152600401611c34929190612f23565b600060405180830381600087803b158015611c4e57600080fd5b505af1158015611c62573d6000803e3d6000fd5b50505050505050505050505050565b60008083905060008173ffffffffffffffffffffffffffffffffffffffff1663295c39a56040518163ffffffff1660e01b815260040160206040518083038186803b158015611cbf57600080fd5b505afa158015611cd3573d6000803e3d6000fd5b505050506040513d601f19601f82011682018060405250611cf79190810190612685565b9050600080600090505b82811015611de1578373ffffffffffffffffffffffffffffffffffffffff1663062bd3e9826040518263ffffffff1660e01b8152600401611d4291906131b1565b60206040518083038186803b158015611d5a57600080fd5b505afa158015611d6e573d6000803e3d6000fd5b505050506040513d601f19601f82011682018060405250611d9291908101906124eb565b91508573ffffffffffffffffffffffffffffffffffffffff168273ffffffffffffffffffffffffffffffffffffffff161415611dd45780945050505050611e1d565b8080600101915050611d01565b506040517f08c379a0000000000000000000000000000000000000000000000000000000008152600401611e14906130f6565b60405180910390fd5b92915050565b6000611e3960028361209590919063ffffffff16565b9050919050565b611e486121e5565b60405180610100016040528060016008811115611e6157fe5b815260200160008152602001604051806080016040528060001515815260200160006001811115611e8e57fe5b815260200160006001811115611ea057fe5b8152602001858152508152602001848152602001600081526020013073ffffffffffffffffffffffffffffffffffffffff1681526020016000815260200160405180602001604052806000815250815250905092915050565b611f016121e5565b604051806101000160405280600880811115611f1957fe5b815260200160008152602001604051806080016040528060001515815260200160006001811115611f4657fe5b815260200160006001811115611f5857fe5b81526020016000815250815260200160008152602001600081526020013073ffffffffffffffffffffffffffffffffffffffff16815260200160008152602001838152509050919050565b611fab6121e5565b60405180610100016040528060006008811115611fc457fe5b815260200160008152602001604051806080016040528060011515815260200160006001811115611ff157fe5b81526020016000600181111561200357fe5b8152602001858152508152602001848152602001600081526020013073ffffffffffffffffffffffffffffffffffffffff1681526020016000815260200160405180602001604052806000815250815250905092915050565b612064612251565b60405180604001604052803073ffffffffffffffffffffffffffffffffffffffff1681526020016001815250905090565b6000808284019050838110156120e0576040517f08c379a00000000000000000000000000000000000000000000000000000000081526004016120d790613036565b60405180910390fd5b8091505092915050565b60405180608001604052806000600381111561210257fe5b8152602001600073ffffffffffffffffffffffffffffffffffffffff168152602001600073ffffffffffffffffffffffffffffffffffffffff168152602001600081525090565b6040518061010001604052806000600881111561216257fe5b815260200160008152602001612176612281565b81526020016000815260200160008152602001600073ffffffffffffffffffffffffffffffffffffffff16815260200160008152602001606081525090565b6040518060400160405280600073ffffffffffffffffffffffffffffffffffffffff168152602001600081525090565b604051806101000160405280600060088111156121fe57fe5b815260200160008152602001612212612281565b81526020016000815260200160008152602001600073ffffffffffffffffffffffffffffffffffffffff16815260200160008152602001606081525090565b6040518060400160405280600073ffffffffffffffffffffffffffffffffffffffff168152602001600081525090565b6040518060800160405280600015158152602001600060018111156122a257fe5b8152602001600060018111156122b457fe5b8152602001600081525090565b6000813590506122d0816135e1565b92915050565b6000815190506122e5816135e1565b92915050565b600082601f8301126122fc57600080fd5b815161230f61230a826132f8565b6132cb565b9150818183526020840193506020810190508385602084028201111561233457600080fd5b60005b83811015612364578161234a88826124d6565b845260208401935060208301925050600181019050612337565b5050505092915050565b60008151905061237d816135f8565b92915050565b600082601f83011261239457600080fd5b81356123a76123a282613320565b6132cb565b915080825260208301602083018583830111156123c357600080fd5b6123ce83828461355a565b50505092915050565b6000813590506123e68161360f565b92915050565b6000815190506123fb8161360f565b92915050565b60006080828403121561241357600080fd5b61241d60806132cb565b9050600061242d848285016123ec565b6000830152506020612441848285016122d6565b6020830152506040612455848285016122d6565b6040830152506060612469848285016124d6565b60608301525092915050565b60006040828403121561248757600080fd5b61249160406132cb565b905060006124a1848285016122c1565b60008301525060206124b5848285016124c1565b60208301525092915050565b6000813590506124d08161361f565b92915050565b6000815190506124e58161361f565b92915050565b6000602082840312156124fd57600080fd5b600061250b848285016122d6565b91505092915050565b60008060006080848603121561252957600080fd5b6000612537868287016122c1565b935050602061254886828701612475565b925050606084013567ffffffffffffffff81111561256557600080fd5b61257186828701612383565b9150509250925092565b600080600080600060a0868803121561259357600080fd5b60006125a1888289016122c1565b95505060206125b2888289016124c1565b94505060406125c3888289016122c1565b93505060606125d4888289016122c1565b92505060806125e5888289016123d7565b9150509295509295909350565b60006020828403121561260457600080fd5b600082015167ffffffffffffffff81111561261e57600080fd5b61262a848285016122eb565b91505092915050565b60006020828403121561264557600080fd5b60006126538482850161236e565b91505092915050565b60006080828403121561266e57600080fd5b600061267c84828501612401565b91505092915050565b60006020828403121561269757600080fd5b60006126a5848285016124d6565b91505092915050565b600080604083850312156126c157600080fd5b60006126cf858286016124d6565b92505060206126e0858286016124d6565b9150509250929050565b60006126f6838361273d565b60208301905092915050565b600061270e8383612d35565b905092915050565b60006127228383612e92565b60408301905092915050565b612737816134b8565b82525050565b61274681613424565b82525050565b61275581613424565b82525050565b60006127668261337c565b61277081856133cf565b935061277b8361334c565b8060005b838110156127ac57815161279388826126ea565b975061279e836133a8565b92505060018101905061277f565b5085935050505092915050565b60006127c482613387565b6127ce81856133e0565b9350836020820285016127e08561335c565b8060005b8581101561281c57848403895281516127fd8582612702565b9450612808836133b5565b925060208a019950506001810190506127e4565b50829750879550505050505092915050565b600061283982613392565b61284381856133f1565b935061284e8361336c565b8060005b8381101561287f5781516128668882612716565b9750612871836133c2565b925050600181019050612852565b5085935050505092915050565b61289581613436565b82525050565b60006128a68261339d565b6128b08185613402565b93506128c0818560208601613569565b6128c98161359c565b840191505092915050565b6128dd816134ca565b82525050565b6128ec816134ee565b82525050565b6128fb81613500565b82525050565b61290a81613512565b82525050565b61291981613524565b82525050565b600061292c601b83613413565b91507f536166654d6174683a206164646974696f6e206f766572666c6f7700000000006000830152602082019050919050565b600061296c602483613413565b91507f4e6f7420656e6f7567682066756e647320746f2072657061792064796478206c60008301527f6f616e21000000000000000000000000000000000000000000000000000000006020830152604082019050919050565b60006129d2603983613413565b91507f436f756c64206e6f7420617070726f7665212028556e6973776170546f6b656e60008301527f4b796265722042757920455448206f6e20556e697377617029000000000000006020830152604082019050919050565b6000612a38601183613413565b91507f556e6b6e6f776e20646972656374696f6e0000000000000000000000000000006000830152602082019050919050565b6000612a78603683613413565b91507f436f756c64206e6f7420617070726f7665212028556e6973776170546f4b796260008301527f65722042757920455448206f6e20556e697377617029000000000000000000006020830152604082019050919050565b6000612ade603d83613413565b91507f436f756c64206e6f7420617070726f76652120284b79626572546f6b656e556e60008301527f69737761702053656c6c20544f4b454e32206f6e20556e6973776170290000006020830152604082019050919050565b6000612b44602483613413565b91507f4e6f206d61726b6574496420666f756e6420666f722070726f7669646564207460008301527f6f6b656e000000000000000000000000000000000000000000000000000000006020830152604082019050919050565b6000612baa603483613413565b91507f436f756c64206e6f7420617070726f76652120284b79626572546f556e69737760008301527f61702042757920455448206f6e204b79626572290000000000000000000000006020830152604082019050919050565b6000612c10603a83613413565b91507f436f756c64206e6f7420617070726f7665212028556e6973776170546f6b656e60008301527f4b796265722053656c6c20546f6b656e206f6e204b79626572290000000000006020830152604082019050919050565b6000612c76602383613413565b91507f436f756c64206e6f74207472616e73666572206261636b207468652070726f6660008301527f69742100000000000000000000000000000000000000000000000000000000006020830152604082019050919050565b6000612cdc603a83613413565b91507f436f756c64206e6f7420617070726f76652120284b79626572546f6b656e556e60008301527f69737761702042757920544f4b454e32206f6e204b79626572290000000000006020830152604082019050919050565b600061016083016000830151612d4e60008601826128e3565b506020830151612d616020860182612ec1565b506040830151612d746040860182612e3d565b506060830151612d8760c0860182612ec1565b506080830151612d9a60e0860182612ec1565b5060a0830151612dae61010086018261273d565b5060c0830151612dc2610120860182612ec1565b5060e0830151848203610140860152612ddb828261289b565b9150508091505092915050565b608082016000820151612dfe6000850182612910565b506020820151612e11602085018261273d565b506040820151612e24604085018261273d565b506060820151612e376060850182612ec1565b50505050565b608082016000820151612e53600085018261288c565b506020820151612e6660208501826128f2565b506040820151612e796040850182612901565b506060820151612e8c6060850182612ec1565b50505050565b604082016000820151612ea8600085018261273d565b506020820151612ebb6020850182612ec1565b50505050565b612eca816134ae565b82525050565b612ed9816134ae565b82525050565b6000602082019050612ef4600083018461272e565b92915050565b6000604082019050612f0f600083018561274c565b612f1c6020830184612ed0565b9392505050565b60006040820190508181036000830152612f3d818561282e565b90508181036020830152612f5181846127b9565b90509392505050565b6000606082019050612f6f60008301866128d4565b612f7c60208301856128d4565b612f896040830184612ed0565b949350505050565b6000604082019050612fa660008301856128d4565b612fb36020830184612ed0565b9392505050565b6000608082019050612fcf60008301876128d4565b612fdc6020830186612ed0565b612fe960408301856128d4565b612ff66060830184612ed0565b95945050505050565b600060608201905061301460008301866128d4565b6130216020830185612ed0565b61302e6040830184612ed0565b949350505050565b6000602082019050818103600083015261304f8161291f565b9050919050565b6000602082019050818103600083015261306f8161295f565b9050919050565b6000602082019050818103600083015261308f816129c5565b9050919050565b600060208201905081810360008301526130af81612a2b565b9050919050565b600060208201905081810360008301526130cf81612a6b565b9050919050565b600060208201905081810360008301526130ef81612ad1565b9050919050565b6000602082019050818103600083015261310f81612b37565b9050919050565b6000602082019050818103600083015261312f81612b9d565b9050919050565b6000602082019050818103600083015261314f81612c03565b9050919050565b6000602082019050818103600083015261316f81612c69565b9050919050565b6000602082019050818103600083015261318f81612ccf565b9050919050565b60006080820190506131ab6000830184612de8565b92915050565b60006020820190506131c66000830184612ed0565b92915050565b60006040820190506131e16000830185612ed0565b81810360208301526131f3818461275b565b90509392505050565b60006080820190506132116000830187612ed0565b8181036020830152613223818661275b565b9050613232604083018561272e565b61323f6060830184612ed0565b95945050505050565b600060408201905061325d6000830185612ed0565b61326a6020830184612ed0565b9392505050565b600060a0820190506132866000830188612ed0565b6132936020830187612ed0565b81810360408301526132a5818661275b565b90506132b4606083018561272e565b6132c16080830184612ed0565b9695505050505050565b6000604051905081810181811067ffffffffffffffff821117156132ee57600080fd5b8060405250919050565b600067ffffffffffffffff82111561330f57600080fd5b602082029050602081019050919050565b600067ffffffffffffffff82111561333757600080fd5b601f19601f8301169050602081019050919050565b6000819050602082019050919050565b6000819050602082019050919050565b6000819050602082019050919050565b600081519050919050565b600081519050919050565b600081519050919050565b600081519050919050565b6000602082019050919050565b6000602082019050919050565b6000602082019050919050565b600082825260208201905092915050565b600082825260208201905092915050565b600082825260208201905092915050565b600082825260208201905092915050565b600082825260208201905092915050565b600061342f8261348e565b9050919050565b60008115159050919050565b6000819050613450826135ad565b919050565b6000819050613463826135ba565b919050565b6000819050613476826135c7565b919050565b6000819050613489826135d4565b919050565b600073ffffffffffffffffffffffffffffffffffffffff82169050919050565b6000819050919050565b60006134c382613536565b9050919050565b60006134d5826134dc565b9050919050565b60006134e78261348e565b9050919050565b60006134f982613442565b9050919050565b600061350b82613455565b9050919050565b600061351d82613468565b9050919050565b600061352f8261347b565b9050919050565b600061354182613548565b9050919050565b60006135538261348e565b9050919050565b82818337600083830152505050565b60005b8381101561358757808201518184015260208101905061356c565b83811115613596576000848401525b50505050565b6000601f19601f8301169050919050565b600981106135b757fe5b50565b600281106135c457fe5b50565b600281106135d157fe5b50565b600481106135de57fe5b50565b6135ea81613424565b81146135f557600080fd5b50565b61360181613436565b811461360c57600080fd5b50565b6004811061361c57600080fd5b50565b613628816134ae565b811461363357600080fd5b5056fea365627a7a7231582041fc2d13453a3466685e932f6d9cc6793fac32c7f8ba27535451245188c295116c6578706572696d656e74616cf564736f6c63430005100040",
  "source": "// SPDX-License-Identifier: ISC\n// todo: gas token\n// todo: curve.fi integration\npragma solidity ^0.5.0;\npragma experimental ABIEncoderV2;\n\nimport \"@studydefi/money-legos/dydx/contracts/DydxFlashloanBase.sol\";\nimport \"@studydefi/money-legos/dydx/contracts/ICallee.sol\";\nimport {KyberNetworkProxy as IKyberNetworkProxy} from \"@studydefi/money-legos/kyber/contracts/KyberNetworkProxy.sol\";\n\nimport \"@openzeppelin/contracts/token/ERC20/IERC20.sol\";\nimport \"./IUniswapV2Router02.sol\";\nimport \"./IWeth.sol\";\n\ncontract Flashloan is ICallee, DydxFlashloanBase {\n  enum Direction {KyberToUniswap, UniswapToKyber, KyberTokenUniswap, UniswapTokenKyber}\n\n  struct ArbInfo {\n    Direction direction;\n    address token1;\n    address token2;\n    uint256 repayAmount;\n  }\n\n  event NewArbitrage(Direction indexed direction, address indexed token1, address indexed token2, uint256 profit, uint256 date);\n\n  IKyberNetworkProxy kyber;\n  IUniswapV2Router02 uniswap;\n  IWeth weth;\n\n  address beneficiary;\n  address constant KYBER_ETH_ADDRESS = 0xEeeeeEeeeEeEeeEeEeEeeEEEeeeeEeeeeeeeEEeE;\n\n  constructor(\n    address kyberAddress,\n    address uniswapAddress,\n    address wethAddress,\n    address beneficiaryAddress\n  ) public {\n    kyber = IKyberNetworkProxy(kyberAddress);\n    uniswap = IUniswapV2Router02(uniswapAddress);\n    weth = IWeth(wethAddress);\n    beneficiary = beneficiaryAddress;\n  }\n\n  // This is the function that will be called postLoan\n  // i.e. Encode the logic to handle your flashloaned funds here\n  function callFunction(\n    address sender,\n    Account.Info memory account,\n    bytes memory data\n  ) public {\n    ArbInfo memory arbInfo = abi.decode(data, (ArbInfo));\n    IERC20 token1 = IERC20(arbInfo.token1);\n    IERC20 token2 = IERC20(arbInfo.token2);\n\n    uint256 balanceSrc = token1.balanceOf(address(this));\n    uint256 deadline = block.timestamp + 300; // add 300 millisec buffer time just in case it exceeds trading deadline\n\n    require(\n      arbInfo.direction == Direction.KyberToUniswap ||\n        arbInfo.direction == Direction.UniswapToKyber ||\n        arbInfo.direction == Direction.KyberTokenUniswap ||\n        arbInfo.direction == Direction.UniswapTokenKyber,\n      \"Unknown direction\"\n    );\n\n    if (arbInfo.direction == Direction.KyberToUniswap) {\n      // Buy ETH on Kyber\n      require(token1.approve(address(kyber), balanceSrc), \"Could not approve! (KyberToUniswap Buy ETH on Kyber)\");\n      (uint256 expectedRate, ) = kyber.getExpectedRate(token1, IERC20(KYBER_ETH_ADDRESS), balanceSrc);\n      kyber.swapTokenToEther(token1, balanceSrc, expectedRate);\n\n      // Sell ETH on Uniswap\n      address[] memory path = new address[](2);\n      path[0] = address(weth);\n      path[1] = address(token1);\n      uint256[] memory minOuts = uniswap.getAmountsOut(address(this).balance, path);\n      uniswap.swapExactETHForTokens.value(address(this).balance)(minOuts[1], path, address(this), deadline);\n    }\n\n    if (arbInfo.direction == Direction.UniswapToKyber) {\n      // Buy ETH on Uniswap\n      require(token1.approve(address(uniswap), balanceSrc), \"Could not approve! (UniswapToKyber Buy ETH on Uniswap)\");\n      address[] memory path = new address[](2);\n      path[0] = address(token1);\n      path[1] = address(weth);\n      uint256[] memory minOuts = uniswap.getAmountsOut(balanceSrc, path);\n      uniswap.swapExactTokensForETH(balanceSrc, minOuts[1], path, address(this), deadline);\n\n      // Sell ETH on Kyber\n      (uint256 expectedRate, ) = kyber.getExpectedRate(IERC20(KYBER_ETH_ADDRESS), token1, address(this).balance);\n      kyber.swapEtherToToken.value(address(this).balance)(token1, expectedRate);\n    }\n\n    if (arbInfo.direction == Direction.KyberTokenUniswap) {\n      // Buy TOKEN2 on Kyber\n      require(token1.approve(address(kyber), balanceSrc), \"Could not approve! (KyberTokenUniswap Buy TOKEN2 on Kyber)\");\n      (uint256 expectedRate, ) = kyber.getExpectedRate(token1, token2, balanceSrc);\n      uint256 balanceDest = kyber.swapTokenToToken(token1, balanceSrc, token2, expectedRate); // switched to swaptoken\n\n      // Sell TOKEN2 on Uniswap\n      // token approve needed for 2nd token on token to token exchange\n      require(token2.approve(address(uniswap), balanceDest), \"Could not approve! (KyberTokenUniswap Sell TOKEN2 on Uniswap)\");\n      address[] memory path = new address[](2);\n      path[0] = address(token2);\n      path[1] = address(token1);\n      uint256[] memory minOuts = uniswap.getAmountsOut(balanceDest, path);\n      uniswap.swapExactTokensForTokens(balanceDest, minOuts[1], path, address(this), deadline);\n    }\n\n    if (arbInfo.direction == Direction.UniswapTokenKyber) {\n      // Buy TOKEN2 on Uniswap\n      require(token1.approve(address(uniswap), balanceSrc), \"Could not approve! (UniswapTokenKyber Buy ETH on Uniswap)\");\n      address[] memory path = new address[](2);\n      path[0] = address(token1);\n      path[1] = address(token2);\n      uint256[] memory minOuts = uniswap.getAmountsOut(balanceSrc, path);\n      uint256[] memory amounts = uniswap.swapExactTokensForTokens(balanceSrc, minOuts[1], path, address(this), deadline);\n\n      // Sell TOKEN2 on Kyber\n      uint256 balanceDest = amounts[0];\n      require(token2.approve(address(kyber), balanceDest), \"Could not approve! (UniswapTokenKyber Sell Token on Kyber)\");\n      (uint256 expectedRate, ) = kyber.getExpectedRate(token2, token1, balanceDest);\n      kyber.swapTokenToToken(token2, balanceDest, token1, expectedRate);\n    }\n\n    uint256 balance = token1.balanceOf(address(this));\n    require(balance > arbInfo.repayAmount, \"Not enough funds to repay dydx loan!\");\n\n    uint256 profit = balance - arbInfo.repayAmount;\n    require(token1.transfer(beneficiary, profit), \"Could not transfer back the profit!\");\n\n    emit NewArbitrage(arbInfo.direction, arbInfo.token1, arbInfo.token2, profit, now);\n  }\n\n  function initateFlashLoan(\n    address _solo,\n    uint256 _amount,\n    address _token1,\n    address _token2,\n    Direction _direction\n  ) external {\n    // Get marketId from token address\n    uint256 marketId = _getMarketIdFromTokenAddress(_solo, _token1);\n\n    // Calculate repay amount (_amount + (2 wei))\n    // Approve transfer from\n    uint256 repayAmount = _getRepaymentAmountInternal(_amount);\n    IERC20(_token1).approve(_solo, repayAmount);\n\n    // 1. Withdraw $\n    // 2. Call callFunction(...)\n    // 3. Deposit back $\n    Actions.ActionArgs[] memory operations = new Actions.ActionArgs[](3);\n\n    operations[0] = _getWithdrawAction(marketId, _amount);\n    operations[1] = _getCallAction(\n      // Encode MyCustomData for callFunction\n      abi.encode(ArbInfo({direction: _direction, token1: _token1, token2: _token2, repayAmount: repayAmount}))\n    );\n    operations[2] = _getDepositAction(marketId, repayAmount);\n\n    Account.Info[] memory accountInfos = new Account.Info[](1);\n    accountInfos[0] = _getAccountInfo();\n\n    ISoloMargin(_solo).operate(accountInfos, operations);\n  }\n\n  function() external payable {}\n}\n",
  "sourcePath": "/home/min/Projects/lx/src/github.com/ilovelili/flashloan/contracts/Flashloan.sol",
  "compiler": {
    "name": "solc",
    "version": "0.5.16+commit.9c3226ce.Emscripten.clang"
  },
  "schemaVersion": "3.1.0",
  "updatedAt": "2020-10-10T14:32:08.628Z",
  "networkType": "ethereum",
  "devdoc": {
    "methods": {}
  },
  "userdoc": {
    "methods": {}
  }
}