{
  "contractName": "TestableFlashloan",
  "abi": [
    {
      "inputs": [
        {
          "internalType": "address",
          "name": "kyberAddress",
          "type": "address"
        },
        {
          "internalType": "address",
          "name": "uniswapAddress",
          "type": "address"
        },
        {
          "internalType": "address",
          "name": "wethAddress",
          "type": "address"
        },
        {
          "internalType": "address",
          "name": "daiFaucetAddress",
          "type": "address"
        },
        {
          "internalType": "address",
          "name": "beneficiaryAddress",
          "type": "address"
        }
      ],
      "payable": false,
      "stateMutability": "nonpayable",
      "type": "constructor"
    },
    {
      "anonymous": false,
      "inputs": [
        {
          "indexed": true,
          "internalType": "uint256",
          "name": "balance",
          "type": "uint256"
        }
      ],
      "name": "GetBalanceDest",
      "type": "event"
    },
    {
      "anonymous": false,
      "inputs": [
        {
          "indexed": true,
          "internalType": "uint256",
          "name": "balance",
          "type": "uint256"
        }
      ],
      "name": "GetBalanceSrc",
      "type": "event"
    },
    {
      "anonymous": false,
      "inputs": [
        {
          "indexed": true,
          "internalType": "enum TestableFlashloan.Direction",
          "name": "direction",
          "type": "uint8"
        }
      ],
      "name": "GetDirection",
      "type": "event"
    },
    {
      "anonymous": false,
      "inputs": [
        {
          "indexed": true,
          "internalType": "uint256",
          "name": "balance",
          "type": "uint256"
        }
      ],
      "name": "GetFinalBalance",
      "type": "event"
    },
    {
      "anonymous": false,
      "inputs": [
        {
          "indexed": true,
          "internalType": "uint256",
          "name": "expectedRate",
          "type": "uint256"
        }
      ],
      "name": "GetKyberExpectedRate",
      "type": "event"
    },
    {
      "anonymous": false,
      "inputs": [
        {
          "indexed": true,
          "internalType": "uint256",
          "name": "repayAmount",
          "type": "uint256"
        }
      ],
      "name": "GetRepayAmount",
      "type": "event"
    },
    {
      "anonymous": false,
      "inputs": [
        {
          "indexed": false,
          "internalType": "uint256[]",
          "name": "minOuts",
          "type": "uint256[]"
        }
      ],
      "name": "GetUniswapMinOuts",
      "type": "event"
    },
    {
      "anonymous": false,
      "inputs": [
        {
          "indexed": true,
          "internalType": "enum TestableFlashloan.Direction",
          "name": "direction",
          "type": "uint8"
        },
        {
          "indexed": true,
          "internalType": "address",
          "name": "token1",
          "type": "address"
        },
        {
          "indexed": true,
          "internalType": "address",
          "name": "token2",
          "type": "address"
        },
        {
          "indexed": false,
          "internalType": "uint256",
          "name": "profit",
          "type": "uint256"
        },
        {
          "indexed": false,
          "internalType": "uint256",
          "name": "date",
          "type": "uint256"
        }
      ],
      "name": "NewArbitrage",
      "type": "event"
    },
    {
      "payable": true,
      "stateMutability": "payable",
      "type": "fallback"
    },
    {
      "constant": false,
      "inputs": [
        {
          "internalType": "address",
          "name": "sender",
          "type": "address"
        },
        {
          "components": [
            {
              "internalType": "address",
              "name": "owner",
              "type": "address"
            },
            {
              "internalType": "uint256",
              "name": "number",
              "type": "uint256"
            }
          ],
          "internalType": "struct Account.Info",
          "name": "account",
          "type": "tuple"
        },
        {
          "internalType": "bytes",
          "name": "data",
          "type": "bytes"
        }
      ],
      "name": "callFunction",
      "outputs": [],
      "payable": false,
      "stateMutability": "nonpayable",
      "type": "function"
    },
    {
      "constant": false,
      "inputs": [
        {
          "internalType": "address",
          "name": "_solo",
          "type": "address"
        },
        {
          "internalType": "uint256",
          "name": "_amount",
          "type": "uint256"
        },
        {
          "internalType": "address",
          "name": "_token1",
          "type": "address"
        },
        {
          "internalType": "address",
          "name": "_token2",
          "type": "address"
        },
        {
          "internalType": "enum TestableFlashloan.Direction",
          "name": "_direction",
          "type": "uint8"
        }
      ],
      "name": "initateFlashLoan",
      "outputs": [],
      "payable": false,
      "stateMutability": "nonpayable",
      "type": "function"
    }
  ],
  "bytecode": "0x60806040523480156200001157600080fd5b5060405162003c0a38038062003c0a83398181016040526200003791908101906200019d565b846000806101000a81548173ffffffffffffffffffffffffffffffffffffffff021916908373ffffffffffffffffffffffffffffffffffffffff16021790555083600160006101000a81548173ffffffffffffffffffffffffffffffffffffffff021916908373ffffffffffffffffffffffffffffffffffffffff16021790555082600260006101000a81548173ffffffffffffffffffffffffffffffffffffffff021916908373ffffffffffffffffffffffffffffffffffffffff16021790555081600360006101000a81548173ffffffffffffffffffffffffffffffffffffffff021916908373ffffffffffffffffffffffffffffffffffffffff16021790555080600460006101000a81548173ffffffffffffffffffffffffffffffffffffffff021916908373ffffffffffffffffffffffffffffffffffffffff16021790555050505050506200026d565b600081519050620001978162000253565b92915050565b600080600080600060a08688031215620001b657600080fd5b6000620001c68882890162000186565b9550506020620001d98882890162000186565b9450506040620001ec8882890162000186565b9350506060620001ff8882890162000186565b9250506080620002128882890162000186565b9150509295509295909350565b60006200022c8262000233565b9050919050565b600073ffffffffffffffffffffffffffffffffffffffff82169050919050565b6200025e816200021f565b81146200026a57600080fd5b50565b61398d806200027d6000396000f3fe6080604052600436106100295760003560e01c80638b4187131461002b578063922c8d8114610054575b005b34801561003757600080fd5b50610052600480360361004d9190810190612863565b61007d565b005b34801561006057600080fd5b5061007b600480360361007691908101906128ca565b611d24565b005b610085612439565b8180602001905161009991908101906129ab565b905060008160200151905060008260400151905060008273ffffffffffffffffffffffffffffffffffffffff166370a08231306040518263ffffffff1660e01b81526004016100e891906131d8565b60206040518083038186803b15801561010057600080fd5b505afa158015610114573d6000803e3d6000fd5b505050506040513d601f19601f8201168201806040525061013891908101906129d4565b9050600061012c42019050817f24e6d40733055aa45fa42bfd1cc4d59d4d8ffec5f8f83bfbb39cae68f8a3497f60405160405180910390a28460000151600381111561018057fe5b7f547d8c1ea7bb950f9326c1f5af34dfed084b832510f8e8ce929e13f4ba0770e360405160405180910390a2600060038111156101b957fe5b856000015160038111156101c957fe5b14806101ef5750600160038111156101dd57fe5b856000015160038111156101ed57fe5b145b8061021457506002600381111561020257fe5b8560000151600381111561021257fe5b145b80610238575060038081111561022657fe5b8560000151600381111561023657fe5b145b610277576040517f08c379a000000000000000000000000000000000000000000000000000000000815260040161026e90613391565b60405180910390fd5b6000600381111561028457fe5b8560000151600381111561029457fe5b14156107d1578373ffffffffffffffffffffffffffffffffffffffff1663095ea7b36000809054906101000a900473ffffffffffffffffffffffffffffffffffffffff16846040518363ffffffff1660e01b81526004016102f69291906131f3565b602060405180830381600087803b15801561031057600080fd5b505af1158015610324573d6000803e3d6000fd5b505050506040513d601f19601f820116820180604052506103489190810190612982565b610387576040517f08c379a000000000000000000000000000000000000000000000000000000000815260040161037e90613411565b60405180910390fd5b60008060009054906101000a900473ffffffffffffffffffffffffffffffffffffffff1673ffffffffffffffffffffffffffffffffffffffff1663809a9e558673eeeeeeeeeeeeeeeeeeeeeeeeeeeeeeeeeeeeeeee866040518463ffffffff1660e01b81526004016103fb93929190613275565b604080518083038186803b15801561041257600080fd5b505afa158015610426573d6000803e3d6000fd5b505050506040513d601f19601f8201168201806040525061044a91908101906129fd565b509050807fb72f141705c40babe8f2e3826e109229e9c0b375637456a9b5081d7b49054e8860405160405180910390a26000809054906101000a900473ffffffffffffffffffffffffffffffffffffffff1673ffffffffffffffffffffffffffffffffffffffff16633bba21dc8685846040518463ffffffff1660e01b81526004016104d89392919061331a565b602060405180830381600087803b1580156104f257600080fd5b505af1158015610506573d6000803e3d6000fd5b505050506040513d601f19601f8201168201806040525061052a91908101906129d4565b506060600260405190808252806020026020018201604052801561055d5781602001602082028038833980820191505090505b509050600260009054906101000a900473ffffffffffffffffffffffffffffffffffffffff168160008151811061059057fe5b602002602001019073ffffffffffffffffffffffffffffffffffffffff16908173ffffffffffffffffffffffffffffffffffffffff168152505085816001815181106105d857fe5b602002602001019073ffffffffffffffffffffffffffffffffffffffff16908173ffffffffffffffffffffffffffffffffffffffff16815250506060600160009054906101000a900473ffffffffffffffffffffffffffffffffffffffff1673ffffffffffffffffffffffffffffffffffffffff1663d06ca61f47846040518363ffffffff1660e01b81526004016106719291906134a7565b60006040518083038186803b15801561068957600080fd5b505afa15801561069d573d6000803e3d6000fd5b505050506040513d6000823e3d601f19601f820116820180604052506106c69190810190612941565b90507fad7f32c6f267a2d2e6cdf9e716d460dd691564d62fcb700b0f91559171ea27cd816040516106f79190613253565b60405180910390a1600160009054906101000a900473ffffffffffffffffffffffffffffffffffffffff1673ffffffffffffffffffffffffffffffffffffffff16637ff36ab5478360018151811061074b57fe5b60200260200101518530896040518663ffffffff1660e01b815260040161077594939291906134d7565b6000604051808303818588803b15801561078e57600080fd5b505af11580156107a2573d6000803e3d6000fd5b50505050506040513d6000823e3d601f19601f820116820180604052506107cc9190810190612941565b505050505b600160038111156107de57fe5b856000015160038111156107ee57fe5b1415610d2c578373ffffffffffffffffffffffffffffffffffffffff1663095ea7b3600160009054906101000a900473ffffffffffffffffffffffffffffffffffffffff16846040518363ffffffff1660e01b81526004016108519291906131f3565b602060405180830381600087803b15801561086b57600080fd5b505af115801561087f573d6000803e3d6000fd5b505050506040513d601f19601f820116820180604052506108a39190810190612982565b6108e2576040517f08c379a00000000000000000000000000000000000000000000000000000000081526004016108d9906133b1565b60405180910390fd5b606060026040519080825280602002602001820160405280156109145781602001602082028038833980820191505090505b509050848160008151811061092557fe5b602002602001019073ffffffffffffffffffffffffffffffffffffffff16908173ffffffffffffffffffffffffffffffffffffffff1681525050600260009054906101000a900473ffffffffffffffffffffffffffffffffffffffff168160018151811061098f57fe5b602002602001019073ffffffffffffffffffffffffffffffffffffffff16908173ffffffffffffffffffffffffffffffffffffffff16815250506060600160009054906101000a900473ffffffffffffffffffffffffffffffffffffffff1673ffffffffffffffffffffffffffffffffffffffff1663d06ca61f85846040518363ffffffff1660e01b8152600401610a289291906134a7565b60006040518083038186803b158015610a4057600080fd5b505afa158015610a54573d6000803e3d6000fd5b505050506040513d6000823e3d601f19601f82011682018060405250610a7d9190810190612941565b90507fad7f32c6f267a2d2e6cdf9e716d460dd691564d62fcb700b0f91559171ea27cd81604051610aae9190613253565b60405180910390a1600160009054906101000a900473ffffffffffffffffffffffffffffffffffffffff1673ffffffffffffffffffffffffffffffffffffffff166318cbafe58583600181518110610b0257fe5b60200260200101518530886040518663ffffffff1660e01b8152600401610b2d95949392919061354c565b600060405180830381600087803b158015610b4757600080fd5b505af1158015610b5b573d6000803e3d6000fd5b505050506040513d6000823e3d601f19601f82011682018060405250610b849190810190612941565b5060008060009054906101000a900473ffffffffffffffffffffffffffffffffffffffff1673ffffffffffffffffffffffffffffffffffffffff1663809a9e5573eeeeeeeeeeeeeeeeeeeeeeeeeeeeeeeeeeeeeeee89476040518463ffffffff1660e01b8152600401610bf993929190613275565b604080518083038186803b158015610c1057600080fd5b505afa158015610c24573d6000803e3d6000fd5b505050506040513d601f19601f82011682018060405250610c4891908101906129fd565b509050807fb72f141705c40babe8f2e3826e109229e9c0b375637456a9b5081d7b49054e8860405160405180910390a26000809054906101000a900473ffffffffffffffffffffffffffffffffffffffff1673ffffffffffffffffffffffffffffffffffffffff16637a2a04564789846040518463ffffffff1660e01b8152600401610cd59291906132ac565b6020604051808303818588803b158015610cee57600080fd5b505af1158015610d02573d6000803e3d6000fd5b50505050506040513d601f19601f82011682018060405250610d2791908101906129d4565b505050505b60026003811115610d3957fe5b85600001516003811115610d4957fe5b1415611372578373ffffffffffffffffffffffffffffffffffffffff1663095ea7b36000809054906101000a900473ffffffffffffffffffffffffffffffffffffffff16846040518363ffffffff1660e01b8152600401610dab9291906131f3565b602060405180830381600087803b158015610dc557600080fd5b505af1158015610dd9573d6000803e3d6000fd5b505050506040513d601f19601f82011682018060405250610dfd9190810190612982565b610e3c576040517f08c379a0000000000000000000000000000000000000000000000000000000008152600401610e3390613451565b60405180910390fd5b60008060009054906101000a900473ffffffffffffffffffffffffffffffffffffffff1673ffffffffffffffffffffffffffffffffffffffff1663809a9e558686866040518463ffffffff1660e01b8152600401610e9c93929190613275565b604080518083038186803b158015610eb357600080fd5b505afa158015610ec7573d6000803e3d6000fd5b505050506040513d601f19601f82011682018060405250610eeb91908101906129fd565b509050807fb72f141705c40babe8f2e3826e109229e9c0b375637456a9b5081d7b49054e8860405160405180910390a260008060009054906101000a900473ffffffffffffffffffffffffffffffffffffffff1673ffffffffffffffffffffffffffffffffffffffff16637409e2eb878688866040518563ffffffff1660e01b8152600401610f7d94939291906132d5565b602060405180830381600087803b158015610f9757600080fd5b505af1158015610fab573d6000803e3d6000fd5b505050506040513d601f19601f82011682018060405250610fcf91908101906129d4565b9050807f015d9c7e73d9302b00c6428709d16bfc64d864dc4e2312c555c4d43cc4c87fe060405160405180910390a28473ffffffffffffffffffffffffffffffffffffffff1663095ea7b3600160009054906101000a900473ffffffffffffffffffffffffffffffffffffffff16836040518363ffffffff1660e01b815260040161105b9291906131f3565b602060405180830381600087803b15801561107557600080fd5b505af1158015611089573d6000803e3d6000fd5b505050506040513d601f19601f820116820180604052506110ad9190810190612982565b6110ec576040517f08c379a00000000000000000000000000000000000000000000000000000000081526004016110e3906133d1565b60405180910390fd5b6060600260405190808252806020026020018201604052801561111e5781602001602082028038833980820191505090505b509050858160008151811061112f57fe5b602002602001019073ffffffffffffffffffffffffffffffffffffffff16908173ffffffffffffffffffffffffffffffffffffffff1681525050868160018151811061117757fe5b602002602001019073ffffffffffffffffffffffffffffffffffffffff16908173ffffffffffffffffffffffffffffffffffffffff16815250506060600160009054906101000a900473ffffffffffffffffffffffffffffffffffffffff1673ffffffffffffffffffffffffffffffffffffffff1663d06ca61f84846040518363ffffffff1660e01b81526004016112109291906134a7565b60006040518083038186803b15801561122857600080fd5b505afa15801561123c573d6000803e3d6000fd5b505050506040513d6000823e3d601f19601f820116820180604052506112659190810190612941565b90507fad7f32c6f267a2d2e6cdf9e716d460dd691564d62fcb700b0f91559171ea27cd816040516112969190613253565b60405180910390a1600160009054906101000a900473ffffffffffffffffffffffffffffffffffffffff1673ffffffffffffffffffffffffffffffffffffffff166338ed173984836001815181106112ea57fe5b602002602001015185308a6040518663ffffffff1660e01b815260040161131595949392919061354c565b600060405180830381600087803b15801561132f57600080fd5b505af1158015611343573d6000803e3d6000fd5b505050506040513d6000823e3d601f19601f8201168201806040525061136c9190810190612941565b50505050505b60038081111561137e57fe5b8560000151600381111561138e57fe5b14156119d1578373ffffffffffffffffffffffffffffffffffffffff1663095ea7b3600160009054906101000a900473ffffffffffffffffffffffffffffffffffffffff16846040518363ffffffff1660e01b81526004016113f19291906131f3565b602060405180830381600087803b15801561140b57600080fd5b505af115801561141f573d6000803e3d6000fd5b505050506040513d601f19601f820116820180604052506114439190810190612982565b611482576040517f08c379a000000000000000000000000000000000000000000000000000000000815260040161147990613371565b60405180910390fd5b606060026040519080825280602002602001820160405280156114b45781602001602082028038833980820191505090505b50905084816000815181106114c557fe5b602002602001019073ffffffffffffffffffffffffffffffffffffffff16908173ffffffffffffffffffffffffffffffffffffffff1681525050838160018151811061150d57fe5b602002602001019073ffffffffffffffffffffffffffffffffffffffff16908173ffffffffffffffffffffffffffffffffffffffff16815250506060600160009054906101000a900473ffffffffffffffffffffffffffffffffffffffff1673ffffffffffffffffffffffffffffffffffffffff1663d06ca61f85846040518363ffffffff1660e01b81526004016115a69291906134a7565b60006040518083038186803b1580156115be57600080fd5b505afa1580156115d2573d6000803e3d6000fd5b505050506040513d6000823e3d601f19601f820116820180604052506115fb9190810190612941565b90507fad7f32c6f267a2d2e6cdf9e716d460dd691564d62fcb700b0f91559171ea27cd8160405161162c9190613253565b60405180910390a16060600160009054906101000a900473ffffffffffffffffffffffffffffffffffffffff1673ffffffffffffffffffffffffffffffffffffffff166338ed1739868460018151811061168257fe5b60200260200101518630896040518663ffffffff1660e01b81526004016116ad95949392919061354c565b600060405180830381600087803b1580156116c757600080fd5b505af11580156116db573d6000803e3d6000fd5b505050506040513d6000823e3d601f19601f820116820180604052506117049190810190612941565b905060008160008151811061171557fe5b60200260200101519050807f015d9c7e73d9302b00c6428709d16bfc64d864dc4e2312c555c4d43cc4c87fe060405160405180910390a28673ffffffffffffffffffffffffffffffffffffffff1663095ea7b36000809054906101000a900473ffffffffffffffffffffffffffffffffffffffff16836040518363ffffffff1660e01b81526004016117a89291906131f3565b602060405180830381600087803b1580156117c257600080fd5b505af11580156117d6573d6000803e3d6000fd5b505050506040513d601f19601f820116820180604052506117fa9190810190612982565b611839576040517f08c379a000000000000000000000000000000000000000000000000000000000815260040161183090613431565b60405180910390fd5b60008060009054906101000a900473ffffffffffffffffffffffffffffffffffffffff1673ffffffffffffffffffffffffffffffffffffffff1663809a9e55898b856040518463ffffffff1660e01b815260040161189993929190613275565b604080518083038186803b1580156118b057600080fd5b505afa1580156118c4573d6000803e3d6000fd5b505050506040513d601f19601f820116820180604052506118e891908101906129fd565b509050807fb72f141705c40babe8f2e3826e109229e9c0b375637456a9b5081d7b49054e8860405160405180910390a26000809054906101000a900473ffffffffffffffffffffffffffffffffffffffff1673ffffffffffffffffffffffffffffffffffffffff16637409e2eb89848c856040518563ffffffff1660e01b815260040161197894939291906132d5565b602060405180830381600087803b15801561199257600080fd5b505af11580156119a6573d6000803e3d6000fd5b505050506040513d601f19601f820116820180604052506119ca91908101906129d4565b5050505050505b60008473ffffffffffffffffffffffffffffffffffffffff166370a08231306040518263ffffffff1660e01b8152600401611a0c91906131d8565b60206040518083038186803b158015611a2457600080fd5b505afa158015611a38573d6000803e3d6000fd5b505050506040513d601f19601f82011682018060405250611a5c91908101906129d4565b9050600086606001519050817f67582069435f8f8f3905d9e72e86eeec54199779a70fc275d67712c5c06b82ad60405160405180910390a2807f71f13a74ceeef12b195797c22d39486aa2cef79b1a5e66259f3ad872542baca860405160405180910390a280821015611b5957600360009054906101000a900473ffffffffffffffffffffffffffffffffffffffff1673ffffffffffffffffffffffffffffffffffffffff16638cd6b3408383036040518263ffffffff1660e01b8152600401611b26919061348c565b600060405180830381600087803b158015611b4057600080fd5b505af1158015611b54573d6000803e3d6000fd5b505050505b6000818773ffffffffffffffffffffffffffffffffffffffff166370a08231306040518263ffffffff1660e01b8152600401611b9591906131d8565b60206040518083038186803b158015611bad57600080fd5b505afa158015611bc1573d6000803e3d6000fd5b505050506040513d601f19601f82011682018060405250611be591908101906129d4565b0390508673ffffffffffffffffffffffffffffffffffffffff1663a9059cbb600460009054906101000a900473ffffffffffffffffffffffffffffffffffffffff16836040518363ffffffff1660e01b8152600401611c459291906131f3565b602060405180830381600087803b158015611c5f57600080fd5b505af1158015611c73573d6000803e3d6000fd5b505050506040513d601f19601f82011682018060405250611c979190810190612982565b50876040015173ffffffffffffffffffffffffffffffffffffffff16886020015173ffffffffffffffffffffffffffffffffffffffff1689600001516003811115611cde57fe5b7f11e944aca3539ba70760461542172892c68b0d8afb8f8eaf5aa7371d240ab5f28442604051611d0f929190613523565b60405180910390a45050505050505050505050565b6000611d308685611fc0565b90506000611d3d86612172565b90508473ffffffffffffffffffffffffffffffffffffffff1663095ea7b388836040518363ffffffff1660e01b8152600401611d7a9291906131f3565b602060405180830381600087803b158015611d9457600080fd5b505af1158015611da8573d6000803e3d6000fd5b505050506040513d601f19601f82011682018060405250611dcc9190810190612982565b5060606003604051908082528060200260200182016040528015611e0a57816020015b611df7612498565b815260200190600190039081611def5790505b509050611e17838861218f565b81600081518110611e2457fe5b6020026020010181905250611eae6040518060800160405280866003811115611e4957fe5b81526020018873ffffffffffffffffffffffffffffffffffffffff1681526020018773ffffffffffffffffffffffffffffffffffffffff16815260200184815250604051602001611e9a9190613471565b604051602081830303815290604052612248565b81600181518110611ebb57fe5b6020026020010181905250611ed083836122f2565b81600281518110611edd57fe5b602002602001018190525060606001604051908082528060200260200182016040528015611f2557816020015b611f12612504565b815260200190600190039081611f0a5790505b509050611f306123ab565b81600081518110611f3d57fe5b60200260200101819052508873ffffffffffffffffffffffffffffffffffffffff1663a67a6a4582846040518363ffffffff1660e01b8152600401611f8392919061321c565b600060405180830381600087803b158015611f9d57600080fd5b505af1158015611fb1573d6000803e3d6000fd5b50505050505050505050505050565b60008083905060008173ffffffffffffffffffffffffffffffffffffffff1663295c39a56040518163ffffffff1660e01b815260040160206040518083038186803b15801561200e57600080fd5b505afa158015612022573d6000803e3d6000fd5b505050506040513d601f19601f8201168201806040525061204691908101906129d4565b9050600080600090505b82811015612130578373ffffffffffffffffffffffffffffffffffffffff1663062bd3e9826040518263ffffffff1660e01b8152600401612091919061348c565b60206040518083038186803b1580156120a957600080fd5b505afa1580156120bd573d6000803e3d6000fd5b505050506040513d601f19601f820116820180604052506120e1919081019061283a565b91508573ffffffffffffffffffffffffffffffffffffffff168273ffffffffffffffffffffffffffffffffffffffff161415612123578094505050505061216c565b8080600101915050612050565b506040517f08c379a0000000000000000000000000000000000000000000000000000000008152600401612163906133f1565b60405180910390fd5b92915050565b60006121886002836123e490919063ffffffff16565b9050919050565b612197612534565b604051806101000160405280600160088111156121b057fe5b8152602001600081526020016040518060800160405280600015158152602001600060018111156121dd57fe5b8152602001600060018111156121ef57fe5b8152602001858152508152602001848152602001600081526020013073ffffffffffffffffffffffffffffffffffffffff1681526020016000815260200160405180602001604052806000815250815250905092915050565b612250612534565b60405180610100016040528060088081111561226857fe5b81526020016000815260200160405180608001604052806000151581526020016000600181111561229557fe5b8152602001600060018111156122a757fe5b81526020016000815250815260200160008152602001600081526020013073ffffffffffffffffffffffffffffffffffffffff16815260200160008152602001838152509050919050565b6122fa612534565b6040518061010001604052806000600881111561231357fe5b81526020016000815260200160405180608001604052806001151581526020016000600181111561234057fe5b81526020016000600181111561235257fe5b8152602001858152508152602001848152602001600081526020013073ffffffffffffffffffffffffffffffffffffffff1681526020016000815260200160405180602001604052806000815250815250905092915050565b6123b36125a0565b60405180604001604052803073ffffffffffffffffffffffffffffffffffffffff1681526020016001815250905090565b60008082840190508381101561242f576040517f08c379a000000000000000000000000000000000000000000000000000000000815260040161242690613351565b60405180910390fd5b8091505092915050565b60405180608001604052806000600381111561245157fe5b8152602001600073ffffffffffffffffffffffffffffffffffffffff168152602001600073ffffffffffffffffffffffffffffffffffffffff168152602001600081525090565b604051806101000160405280600060088111156124b157fe5b8152602001600081526020016124c56125d0565b81526020016000815260200160008152602001600073ffffffffffffffffffffffffffffffffffffffff16815260200160008152602001606081525090565b6040518060400160405280600073ffffffffffffffffffffffffffffffffffffffff168152602001600081525090565b6040518061010001604052806000600881111561254d57fe5b8152602001600081526020016125616125d0565b81526020016000815260200160008152602001600073ffffffffffffffffffffffffffffffffffffffff16815260200160008152602001606081525090565b6040518060400160405280600073ffffffffffffffffffffffffffffffffffffffff168152602001600081525090565b6040518060800160405280600015158152602001600060018111156125f157fe5b81526020016000600181111561260357fe5b8152602001600081525090565b60008135905061261f816138f5565b92915050565b600081519050612634816138f5565b92915050565b600082601f83011261264b57600080fd5b815161265e612659826135d3565b6135a6565b9150818183526020840193506020810190508385602084028201111561268357600080fd5b60005b838110156126b357816126998882612825565b845260208401935060208301925050600181019050612686565b5050505092915050565b6000815190506126cc8161390c565b92915050565b600082601f8301126126e357600080fd5b81356126f66126f1826135fb565b6135a6565b9150808252602083016020830185838301111561271257600080fd5b61271d83828461386e565b50505092915050565b60008135905061273581613923565b92915050565b60008151905061274a81613923565b92915050565b60006080828403121561276257600080fd5b61276c60806135a6565b9050600061277c8482850161273b565b600083015250602061279084828501612625565b60208301525060406127a484828501612625565b60408301525060606127b884828501612825565b60608301525092915050565b6000604082840312156127d657600080fd5b6127e060406135a6565b905060006127f084828501612610565b600083015250602061280484828501612810565b60208301525092915050565b60008135905061281f81613933565b92915050565b60008151905061283481613933565b92915050565b60006020828403121561284c57600080fd5b600061285a84828501612625565b91505092915050565b60008060006080848603121561287857600080fd5b600061288686828701612610565b9350506020612897868287016127c4565b925050606084013567ffffffffffffffff8111156128b457600080fd5b6128c0868287016126d2565b9150509250925092565b600080600080600060a086880312156128e257600080fd5b60006128f088828901612610565b955050602061290188828901612810565b945050604061291288828901612610565b935050606061292388828901612610565b925050608061293488828901612726565b9150509295509295909350565b60006020828403121561295357600080fd5b600082015167ffffffffffffffff81111561296d57600080fd5b6129798482850161263a565b91505092915050565b60006020828403121561299457600080fd5b60006129a2848285016126bd565b91505092915050565b6000608082840312156129bd57600080fd5b60006129cb84828501612750565b91505092915050565b6000602082840312156129e657600080fd5b60006129f484828501612825565b91505092915050565b60008060408385031215612a1057600080fd5b6000612a1e85828601612825565b9250506020612a2f85828601612825565b9150509250929050565b6000612a458383612aa4565b60208301905092915050565b6000612a5d838361302e565b905092915050565b6000612a71838361318b565b60408301905092915050565b6000612a8983836131ba565b60208301905092915050565b612a9e816137cc565b82525050565b612aad81613738565b82525050565b612abc81613738565b82525050565b6000612acd82613667565b612ad781856136d2565b9350612ae283613627565b8060005b83811015612b13578151612afa8882612a39565b9750612b058361369e565b925050600181019050612ae6565b5085935050505092915050565b6000612b2b82613672565b612b3581856136e3565b935083602082028501612b4785613637565b8060005b85811015612b835784840389528151612b648582612a51565b9450612b6f836136ab565b925060208a01995050600181019050612b4b565b50829750879550505050505092915050565b6000612ba08261367d565b612baa81856136f4565b9350612bb583613647565b8060005b83811015612be6578151612bcd8882612a65565b9750612bd8836136b8565b925050600181019050612bb9565b5085935050505092915050565b6000612bfe82613688565b612c088185613705565b9350612c1383613657565b8060005b83811015612c44578151612c2b8882612a7d565b9750612c36836136c5565b925050600181019050612c17565b5085935050505092915050565b612c5a8161374a565b82525050565b6000612c6b82613693565b612c758185613716565b9350612c8581856020860161387d565b612c8e816138b0565b840191505092915050565b612ca2816137de565b82525050565b612cb181613802565b82525050565b612cc081613814565b82525050565b612ccf81613826565b82525050565b612cde81613838565b82525050565b6000612cf1601b83613727565b91507f536166654d6174683a206164646974696f6e206f766572666c6f7700000000006000830152602082019050919050565b6000612d31603983613727565b91507f436f756c64206e6f7420617070726f7665212028556e6973776170546f6b656e60008301527f4b796265722042757920455448206f6e20556e697377617029000000000000006020830152604082019050919050565b6000612d97601183613727565b91507f556e6b6e6f776e20646972656374696f6e0000000000000000000000000000006000830152602082019050919050565b6000612dd7603683613727565b91507f436f756c64206e6f7420617070726f7665212028556e6973776170546f4b796260008301527f65722042757920455448206f6e20556e697377617029000000000000000000006020830152604082019050919050565b6000612e3d603d83613727565b91507f436f756c64206e6f7420617070726f76652120284b79626572546f6b656e556e60008301527f69737761702053656c6c20544f4b454e32206f6e20556e6973776170290000006020830152604082019050919050565b6000612ea3602483613727565b91507f4e6f206d61726b6574496420666f756e6420666f722070726f7669646564207460008301527f6f6b656e000000000000000000000000000000000000000000000000000000006020830152604082019050919050565b6000612f09603483613727565b91507f436f756c64206e6f7420617070726f76652120284b79626572546f556e69737760008301527f61702042757920455448206f6e204b79626572290000000000000000000000006020830152604082019050919050565b6000612f6f603a83613727565b91507f436f756c64206e6f7420617070726f7665212028556e6973776170546f6b656e60008301527f4b796265722053656c6c20546f6b656e206f6e204b79626572290000000000006020830152604082019050919050565b6000612fd5603a83613727565b91507f436f756c64206e6f7420617070726f76652120284b79626572546f6b656e556e60008301527f69737761702042757920544f4b454e32206f6e204b79626572290000000000006020830152604082019050919050565b6000610160830160008301516130476000860182612ca8565b50602083015161305a60208601826131ba565b50604083015161306d6040860182613136565b50606083015161308060c08601826131ba565b50608083015161309360e08601826131ba565b5060a08301516130a7610100860182612aa4565b5060c08301516130bb6101208601826131ba565b5060e08301518482036101408601526130d48282612c60565b9150508091505092915050565b6080820160008201516130f76000850182612cd5565b50602082015161310a6020850182612aa4565b50604082015161311d6040850182612aa4565b50606082015161313060608501826131ba565b50505050565b60808201600082015161314c6000850182612c51565b50602082015161315f6020850182612cb7565b5060408201516131726040850182612cc6565b50606082015161318560608501826131ba565b50505050565b6040820160008201516131a16000850182612aa4565b5060208201516131b460208501826131ba565b50505050565b6131c3816137c2565b82525050565b6131d2816137c2565b82525050565b60006020820190506131ed6000830184612a95565b92915050565b60006040820190506132086000830185612ab3565b61321560208301846131c9565b9392505050565b600060408201905081810360008301526132368185612b95565b9050818103602083015261324a8184612b20565b90509392505050565b6000602082019050818103600083015261326d8184612bf3565b905092915050565b600060608201905061328a6000830186612c99565b6132976020830185612c99565b6132a460408301846131c9565b949350505050565b60006040820190506132c16000830185612c99565b6132ce60208301846131c9565b9392505050565b60006080820190506132ea6000830187612c99565b6132f760208301866131c9565b6133046040830185612c99565b61331160608301846131c9565b95945050505050565b600060608201905061332f6000830186612c99565b61333c60208301856131c9565b61334960408301846131c9565b949350505050565b6000602082019050818103600083015261336a81612ce4565b9050919050565b6000602082019050818103600083015261338a81612d24565b9050919050565b600060208201905081810360008301526133aa81612d8a565b9050919050565b600060208201905081810360008301526133ca81612dca565b9050919050565b600060208201905081810360008301526133ea81612e30565b9050919050565b6000602082019050818103600083015261340a81612e96565b9050919050565b6000602082019050818103600083015261342a81612efc565b9050919050565b6000602082019050818103600083015261344a81612f62565b9050919050565b6000602082019050818103600083015261346a81612fc8565b9050919050565b600060808201905061348660008301846130e1565b92915050565b60006020820190506134a160008301846131c9565b92915050565b60006040820190506134bc60008301856131c9565b81810360208301526134ce8184612ac2565b90509392505050565b60006080820190506134ec60008301876131c9565b81810360208301526134fe8186612ac2565b905061350d6040830185612a95565b61351a60608301846131c9565b95945050505050565b600060408201905061353860008301856131c9565b61354560208301846131c9565b9392505050565b600060a08201905061356160008301886131c9565b61356e60208301876131c9565b81810360408301526135808186612ac2565b905061358f6060830185612a95565b61359c60808301846131c9565b9695505050505050565b6000604051905081810181811067ffffffffffffffff821117156135c957600080fd5b8060405250919050565b600067ffffffffffffffff8211156135ea57600080fd5b602082029050602081019050919050565b600067ffffffffffffffff82111561361257600080fd5b601f19601f8301169050602081019050919050565b6000819050602082019050919050565b6000819050602082019050919050565b6000819050602082019050919050565b6000819050602082019050919050565b600081519050919050565b600081519050919050565b600081519050919050565b600081519050919050565b600081519050919050565b6000602082019050919050565b6000602082019050919050565b6000602082019050919050565b6000602082019050919050565b600082825260208201905092915050565b600082825260208201905092915050565b600082825260208201905092915050565b600082825260208201905092915050565b600082825260208201905092915050565b600082825260208201905092915050565b6000613743826137a2565b9050919050565b60008115159050919050565b6000819050613764826138c1565b919050565b6000819050613777826138ce565b919050565b600081905061378a826138db565b919050565b600081905061379d826138e8565b919050565b600073ffffffffffffffffffffffffffffffffffffffff82169050919050565b6000819050919050565b60006137d78261384a565b9050919050565b60006137e9826137f0565b9050919050565b60006137fb826137a2565b9050919050565b600061380d82613756565b9050919050565b600061381f82613769565b9050919050565b60006138318261377c565b9050919050565b60006138438261378f565b9050919050565b60006138558261385c565b9050919050565b6000613867826137a2565b9050919050565b82818337600083830152505050565b60005b8381101561389b578082015181840152602081019050613880565b838111156138aa576000848401525b50505050565b6000601f19601f8301169050919050565b600981106138cb57fe5b50565b600281106138d857fe5b50565b600281106138e557fe5b50565b600481106138f257fe5b50565b6138fe81613738565b811461390957600080fd5b50565b6139158161374a565b811461392057600080fd5b50565b6004811061393057600080fd5b50565b61393c816137c2565b811461394757600080fd5b5056fea365627a7a7231582094cf542da99317e0523d5b28f548cb0c166d296ae0c4192bd4464681cc5d424c6c6578706572696d656e74616cf564736f6c63430005100040",
  "source": "pragma solidity ^0.5.0;\npragma experimental ABIEncoderV2;\n\nimport \"@studydefi/money-legos/dydx/contracts/DydxFlashloanBase.sol\";\nimport \"@studydefi/money-legos/dydx/contracts/ICallee.sol\";\nimport {KyberNetworkProxy as IKyberNetworkProxy} from \"@studydefi/money-legos/kyber/contracts/KyberNetworkProxy.sol\";\n\nimport \"@openzeppelin/contracts/token/ERC20/IERC20.sol\";\nimport \"./IUniswapV2Router02.sol\";\nimport \"./IWeth.sol\";\nimport \"./DaiFaucet.sol\";\n\ncontract TestableFlashloan is ICallee, DydxFlashloanBase {\n  enum Direction {KyberToUniswap, UniswapToKyber, KyberTokenUniswap, UniswapTokenKyber}\n\n  struct ArbInfo {\n    Direction direction;\n    address token1;\n    address token2;\n    uint256 repayAmount;\n  }\n\n  // for debugging\n  event GetDirection(Direction indexed direction);\n  event GetKyberExpectedRate(uint256 indexed expectedRate);\n  event GetUniswapMinOuts(uint256[] minOuts);\n  event GetBalanceSrc(uint256 indexed balance);\n  event GetBalanceDest(uint256 indexed balance);\n  event GetFinalBalance(uint256 indexed balance);\n  event GetRepayAmount(uint256 indexed repayAmount);\n  event NewArbitrage(Direction indexed direction, address indexed token1, address indexed token2, uint256 profit, uint256 date);\n\n  IKyberNetworkProxy kyber;\n  IUniswapV2Router02 uniswap;\n  IWeth weth;\n  DaiFaucet daiFaucet;\n\n  address beneficiary;\n  address constant KYBER_ETH_ADDRESS = 0xEeeeeEeeeEeEeeEeEeEeeEEEeeeeEeeeeeeeEEeE;\n\n  constructor(\n    address kyberAddress,\n    address uniswapAddress,\n    address wethAddress,\n    address daiFaucetAddress,\n    address beneficiaryAddress\n  ) public {\n    kyber = IKyberNetworkProxy(kyberAddress);\n    uniswap = IUniswapV2Router02(uniswapAddress);\n    weth = IWeth(wethAddress);\n    daiFaucet = DaiFaucet(daiFaucetAddress);\n    beneficiary = beneficiaryAddress;\n  }\n\n  // This is the function that will be called postLoan\n  // i.e. Encode the logic to handle your flashloaned funds here\n  function callFunction(\n    address sender,\n    Account.Info memory account,\n    bytes memory data\n  ) public {\n    ArbInfo memory arbInfo = abi.decode(data, (ArbInfo));\n    IERC20 token1 = IERC20(arbInfo.token1);\n    IERC20 token2 = IERC20(arbInfo.token2);\n\n    uint256 balanceSrc = token1.balanceOf(address(this));\n    uint256 deadline = block.timestamp + 300; // add 300 millisec buffer time just in case it exceeds trading deadline\n\n    emit GetBalanceSrc(balanceSrc);\n    emit GetDirection(arbInfo.direction);\n\n    require(\n      arbInfo.direction == Direction.KyberToUniswap ||\n        arbInfo.direction == Direction.UniswapToKyber ||\n        arbInfo.direction == Direction.KyberTokenUniswap ||\n        arbInfo.direction == Direction.UniswapTokenKyber,\n      \"Unknown direction\"\n    );\n\n    if (arbInfo.direction == Direction.KyberToUniswap) {\n      // Buy ETH on Kyber\n      require(token1.approve(address(kyber), balanceSrc), \"Could not approve! (KyberToUniswap Buy ETH on Kyber)\");\n      (uint256 expectedRate, ) = kyber.getExpectedRate(token1, IERC20(KYBER_ETH_ADDRESS), balanceSrc);\n      emit GetKyberExpectedRate(expectedRate);\n      kyber.swapTokenToEther(token1, balanceSrc, expectedRate);\n\n      // Sell ETH on Uniswap\n      address[] memory path = new address[](2);\n      path[0] = address(weth);\n      path[1] = address(token1);\n      uint256[] memory minOuts = uniswap.getAmountsOut(address(this).balance, path);\n      emit GetUniswapMinOuts(minOuts);\n      uniswap.swapExactETHForTokens.value(address(this).balance)(minOuts[1], path, address(this), deadline);\n    }\n\n    if (arbInfo.direction == Direction.UniswapToKyber) {\n      // Buy ETH on Uniswap\n      require(token1.approve(address(uniswap), balanceSrc), \"Could not approve! (UniswapToKyber Buy ETH on Uniswap)\");\n      address[] memory path = new address[](2);\n      path[0] = address(token1);\n      path[1] = address(weth);\n      uint256[] memory minOuts = uniswap.getAmountsOut(balanceSrc, path);\n      emit GetUniswapMinOuts(minOuts);\n      uniswap.swapExactTokensForETH(balanceSrc, minOuts[1], path, address(this), deadline);\n\n      // Sell ETH on Kyber\n      (uint256 expectedRate, ) = kyber.getExpectedRate(IERC20(KYBER_ETH_ADDRESS), token1, address(this).balance);\n      emit GetKyberExpectedRate(expectedRate);\n      kyber.swapEtherToToken.value(address(this).balance)(token1, expectedRate);\n    }\n\n    if (arbInfo.direction == Direction.KyberTokenUniswap) {\n      // Buy TOKEN2 on Kyber\n      require(token1.approve(address(kyber), balanceSrc), \"Could not approve! (KyberTokenUniswap Buy TOKEN2 on Kyber)\");\n      (uint256 expectedRate, ) = kyber.getExpectedRate(token1, token2, balanceSrc);\n      emit GetKyberExpectedRate(expectedRate);\n      uint256 balanceDest = kyber.swapTokenToToken(token1, balanceSrc, token2, expectedRate); // switched to swaptoken\n      emit GetBalanceDest(balanceDest);\n\n      // Sell TOKEN2 on Uniswap\n      // token approve needed for 2nd token on token to token exchange\n      require(token2.approve(address(uniswap), balanceDest), \"Could not approve! (KyberTokenUniswap Sell TOKEN2 on Uniswap)\");\n      address[] memory path = new address[](2);\n      path[0] = address(token2);\n      path[1] = address(token1);\n      uint256[] memory minOuts = uniswap.getAmountsOut(balanceDest, path);\n      emit GetUniswapMinOuts(minOuts);\n      uniswap.swapExactTokensForTokens(balanceDest, minOuts[1], path, address(this), deadline);\n    }\n\n    if (arbInfo.direction == Direction.UniswapTokenKyber) {\n      // Buy TOKEN2 on Uniswap\n      require(token1.approve(address(uniswap), balanceSrc), \"Could not approve! (UniswapTokenKyber Buy ETH on Uniswap)\");\n      address[] memory path = new address[](2);\n      path[0] = address(token1);\n      path[1] = address(token2);\n      uint256[] memory minOuts = uniswap.getAmountsOut(balanceSrc, path);\n      emit GetUniswapMinOuts(minOuts);\n      uint256[] memory amounts = uniswap.swapExactTokensForTokens(balanceSrc, minOuts[1], path, address(this), deadline);\n\n      // Sell TOKEN2 on Kyber\n      uint256 balanceDest = amounts[0];\n      emit GetBalanceDest(balanceDest);\n\n      require(token2.approve(address(kyber), balanceDest), \"Could not approve! (UniswapTokenKyber Sell Token on Kyber)\");\n      (uint256 expectedRate, ) = kyber.getExpectedRate(token2, token1, balanceDest);\n      emit GetKyberExpectedRate(expectedRate);\n      kyber.swapTokenToToken(token2, balanceDest, token1, expectedRate);\n    }\n\n    uint256 balance = token1.balanceOf(address(this));\n    uint256 repayAmount = arbInfo.repayAmount;\n\n    emit GetFinalBalance(balance);\n    emit GetRepayAmount(repayAmount);\n\n    if (balance < repayAmount) {\n      daiFaucet.sendDai(repayAmount - balance);\n    }\n\n    uint256 positiveProfit = token1.balanceOf(address(this)) - repayAmount;\n    token1.transfer(beneficiary, positiveProfit);\n    emit NewArbitrage(arbInfo.direction, arbInfo.token1, arbInfo.token2, positiveProfit, now);\n  }\n\n  function initateFlashLoan(\n    address _solo,\n    uint256 _amount,\n    address _token1,\n    address _token2,\n    Direction _direction\n  ) external {\n    // Get marketId from token address\n    uint256 marketId = _getMarketIdFromTokenAddress(_solo, _token1);\n\n    // Calculate repay amount (_amount + (2 wei))\n    // Approve transfer from\n    uint256 repayAmount = _getRepaymentAmountInternal(_amount);\n    IERC20(_token1).approve(_solo, repayAmount);\n\n    // 1. Withdraw $\n    // 2. Call callFunction(...)\n    // 3. Deposit back $\n    Actions.ActionArgs[] memory operations = new Actions.ActionArgs[](3);\n\n    operations[0] = _getWithdrawAction(marketId, _amount);\n    operations[1] = _getCallAction(\n      // Encode MyCustomData for callFunction\n      abi.encode(ArbInfo({direction: _direction, token1: _token1, token2: _token2, repayAmount: repayAmount}))\n    );\n    operations[2] = _getDepositAction(marketId, repayAmount);\n\n    Account.Info[] memory accountInfos = new Account.Info[](1);\n    accountInfos[0] = _getAccountInfo();\n\n    ISoloMargin(_solo).operate(accountInfos, operations);\n  }\n\n  function() external payable {}\n}\n",
  "sourcePath": "/home/min/Projects/lx/src/github.com/ilovelili/flashloan/contracts/TestableFlashloan.sol",
  "compiler": {
    "name": "solc",
    "version": "0.5.16+commit.9c3226ce.Emscripten.clang"
  },
  "schemaVersion": "3.1.0",
  "updatedAt": "2020-10-04T15:27:52.358Z",
  "networkType": "ethereum",
  "devdoc": {
    "methods": {}
  },
  "userdoc": {
    "methods": {}
  }
}