{
  "contractName": "TestableFlashloan",
  "abi": [
    {
      "inputs": [
        {
          "internalType": "address",
          "name": "kyberAddress",
          "type": "address"
        },
        {
          "internalType": "address",
          "name": "uniswapAddress",
          "type": "address"
        },
        {
          "internalType": "address",
          "name": "wethAddress",
          "type": "address"
        },
        {
          "internalType": "address",
          "name": "daiAddress",
          "type": "address"
        },
        {
          "internalType": "address",
          "name": "daiFaucetAddress",
          "type": "address"
        },
        {
          "internalType": "address",
          "name": "beneficiaryAddress",
          "type": "address"
        }
      ],
      "payable": false,
      "stateMutability": "nonpayable",
      "type": "constructor"
    },
    {
      "anonymous": false,
      "inputs": [
        {
          "indexed": true,
          "internalType": "uint256",
          "name": "balance",
          "type": "uint256"
        }
      ],
      "name": "GetBalanceDAI",
      "type": "event"
    },
    {
      "anonymous": false,
      "inputs": [
        {
          "indexed": true,
          "internalType": "uint256",
          "name": "expectedRate",
          "type": "uint256"
        }
      ],
      "name": "GetKyberExpectedRate",
      "type": "event"
    },
    {
      "anonymous": false,
      "inputs": [
        {
          "indexed": false,
          "internalType": "uint256[]",
          "name": "minOuts",
          "type": "uint256[]"
        }
      ],
      "name": "GetMinOuts",
      "type": "event"
    },
    {
      "anonymous": false,
      "inputs": [
        {
          "indexed": true,
          "internalType": "int256",
          "name": "profit",
          "type": "int256"
        }
      ],
      "name": "GetProfit",
      "type": "event"
    },
    {
      "anonymous": false,
      "inputs": [
        {
          "indexed": true,
          "internalType": "enum TestableFlashloan.Direction",
          "name": "direction",
          "type": "uint8"
        },
        {
          "indexed": true,
          "internalType": "uint256",
          "name": "profit",
          "type": "uint256"
        },
        {
          "indexed": true,
          "internalType": "uint256",
          "name": "date",
          "type": "uint256"
        }
      ],
      "name": "NewArbitrage",
      "type": "event"
    },
    {
      "payable": true,
      "stateMutability": "payable",
      "type": "fallback"
    },
    {
      "constant": false,
      "inputs": [
        {
          "internalType": "address",
          "name": "sender",
          "type": "address"
        },
        {
          "components": [
            {
              "internalType": "address",
              "name": "owner",
              "type": "address"
            },
            {
              "internalType": "uint256",
              "name": "number",
              "type": "uint256"
            }
          ],
          "internalType": "struct Account.Info",
          "name": "account",
          "type": "tuple"
        },
        {
          "internalType": "bytes",
          "name": "data",
          "type": "bytes"
        }
      ],
      "name": "callFunction",
      "outputs": [],
      "payable": false,
      "stateMutability": "nonpayable",
      "type": "function"
    },
    {
      "constant": false,
      "inputs": [
        {
          "internalType": "address",
          "name": "_solo",
          "type": "address"
        },
        {
          "internalType": "address",
          "name": "_token",
          "type": "address"
        },
        {
          "internalType": "uint256",
          "name": "_amount",
          "type": "uint256"
        },
        {
          "internalType": "enum TestableFlashloan.Direction",
          "name": "_direction",
          "type": "uint8"
        }
      ],
      "name": "initateFlashLoan",
      "outputs": [],
      "payable": false,
      "stateMutability": "nonpayable",
      "type": "function"
    }
  ],
  "bytecode": "0x60806040523480156200001157600080fd5b5060405162002cf838038062002cf88339818101604052620000379190810190620001df565b856000806101000a81548173ffffffffffffffffffffffffffffffffffffffff021916908373ffffffffffffffffffffffffffffffffffffffff16021790555084600160006101000a81548173ffffffffffffffffffffffffffffffffffffffff021916908373ffffffffffffffffffffffffffffffffffffffff16021790555083600260006101000a81548173ffffffffffffffffffffffffffffffffffffffff021916908373ffffffffffffffffffffffffffffffffffffffff16021790555082600360006101000a81548173ffffffffffffffffffffffffffffffffffffffff021916908373ffffffffffffffffffffffffffffffffffffffff16021790555081600460006101000a81548173ffffffffffffffffffffffffffffffffffffffff021916908373ffffffffffffffffffffffffffffffffffffffff16021790555080600560006101000a81548173ffffffffffffffffffffffffffffffffffffffff021916908373ffffffffffffffffffffffffffffffffffffffff160217905550505050505050620002c3565b600081519050620001d981620002a9565b92915050565b60008060008060008060c08789031215620001f957600080fd5b60006200020989828a01620001c8565b96505060206200021c89828a01620001c8565b95505060406200022f89828a01620001c8565b94505060606200024289828a01620001c8565b93505060806200025589828a01620001c8565b92505060a06200026889828a01620001c8565b9150509295509295509295565b6000620002828262000289565b9050919050565b600073ffffffffffffffffffffffffffffffffffffffff82169050919050565b620002b48162000275565b8114620002c057600080fd5b50565b612a2580620002d36000396000f3fe6080604052600436106100295760003560e01c80638b4187131461002b578063f7b967a014610054575b005b34801561003757600080fd5b50610052600480360361004d9190810190611cb3565b61007d565b005b34801561006057600080fd5b5061007b60048036036100769190810190611c50565b6111ac565b005b610085611888565b818060200190516100999190810190611d84565b90506000600360009054906101000a900473ffffffffffffffffffffffffffffffffffffffff1673ffffffffffffffffffffffffffffffffffffffff166370a08231306040518263ffffffff1660e01b81526004016100f8919061235c565b60206040518083038186803b15801561011057600080fd5b505afa158015610124573d6000803e3d6000fd5b505050506040513d601f19601f820116820180604052506101489190810190611dad565b9050600061012c42019050817fa182d425c8a72702b0a5283325bf5ab4ecdded9d9107cc5822081040c54abb4c60405160405180910390a26000600181111561018d57fe5b8360000151600181111561019d57fe5b141561082557600360009054906101000a900473ffffffffffffffffffffffffffffffffffffffff1673ffffffffffffffffffffffffffffffffffffffff1663095ea7b36000809054906101000a900473ffffffffffffffffffffffffffffffffffffffff16846040518363ffffffff1660e01b8152600401610221929190612377565b602060405180830381600087803b15801561023b57600080fd5b505af115801561024f573d6000803e3d6000fd5b505050506040513d601f19601f820116820180604052506102739190810190611d5b565b6102b2576040517f08c379a00000000000000000000000000000000000000000000000000000000081526004016102a990612500565b60405180910390fd5b60008060009054906101000a900473ffffffffffffffffffffffffffffffffffffffff1673ffffffffffffffffffffffffffffffffffffffff1663809a9e55600360009054906101000a900473ffffffffffffffffffffffffffffffffffffffff1673eeeeeeeeeeeeeeeeeeeeeeeeeeeeeeeeeeeeeeee866040518463ffffffff1660e01b8152600401610348939291906123f9565b604080518083038186803b15801561035f57600080fd5b505afa158015610373573d6000803e3d6000fd5b505050506040513d601f19601f820116820180604052506103979190810190611dd6565b509050807fb72f141705c40babe8f2e3826e109229e9c0b375637456a9b5081d7b49054e8860405160405180910390a26000809054906101000a900473ffffffffffffffffffffffffffffffffffffffff1673ffffffffffffffffffffffffffffffffffffffff16633bba21dc600360009054906101000a900473ffffffffffffffffffffffffffffffffffffffff1685846040518463ffffffff1660e01b815260040161044793929190612459565b602060405180830381600087803b15801561046157600080fd5b505af1158015610475573d6000803e3d6000fd5b505050506040513d601f19601f820116820180604052506104999190810190611dad565b50606060026040519080825280602002602001820160405280156104cc5781602001602082028038833980820191505090505b509050600260009054906101000a900473ffffffffffffffffffffffffffffffffffffffff16816000815181106104ff57fe5b602002602001019073ffffffffffffffffffffffffffffffffffffffff16908173ffffffffffffffffffffffffffffffffffffffff1681525050600360009054906101000a900473ffffffffffffffffffffffffffffffffffffffff168160018151811061056957fe5b602002602001019073ffffffffffffffffffffffffffffffffffffffff16908173ffffffffffffffffffffffffffffffffffffffff16815250506060600160009054906101000a900473ffffffffffffffffffffffffffffffffffffffff1673ffffffffffffffffffffffffffffffffffffffff1663d06ca61f47846040518363ffffffff1660e01b8152600401610602929190612556565b60006040518083038186803b15801561061a57600080fd5b505afa15801561062e573d6000803e3d6000fd5b505050506040513d6000823e3d601f19601f820116820180604052506106579190810190611d1a565b90506060600160009054906101000a900473ffffffffffffffffffffffffffffffffffffffff1673ffffffffffffffffffffffffffffffffffffffff1663d06ca61f670de0b6b3a7640000856040518363ffffffff1660e01b81526004016106c0929190612490565b60006040518083038186803b1580156106d857600080fd5b505afa1580156106ec573d6000803e3d6000fd5b505050506040513d6000823e3d601f19601f820116820180604052506107159190810190611d1a565b90507f9bba9ef16b0df102c82ceaf9aa559791a47157412172e536387cb17dc76374678160405161074691906123d7565b60405180910390a1600160009054906101000a900473ffffffffffffffffffffffffffffffffffffffff1673ffffffffffffffffffffffffffffffffffffffff16637ff36ab5478460018151811061079a57fe5b602002602001015186308a6040518663ffffffff1660e01b81526004016107c49493929190612586565b6000604051808303818588803b1580156107dd57600080fd5b505af11580156107f1573d6000803e3d6000fd5b50505050506040513d6000823e3d601f19601f8201168201806040525061081b9190810190611d1a565b5050505050610d81565b600360009054906101000a900473ffffffffffffffffffffffffffffffffffffffff1673ffffffffffffffffffffffffffffffffffffffff1663095ea7b3600160009054906101000a900473ffffffffffffffffffffffffffffffffffffffff16846040518363ffffffff1660e01b81526004016108a4929190612377565b602060405180830381600087803b1580156108be57600080fd5b505af11580156108d2573d6000803e3d6000fd5b505050506040513d601f19601f820116820180604052506108f69190810190611d5b565b610935576040517f08c379a000000000000000000000000000000000000000000000000000000000815260040161092c90612500565b60405180910390fd5b606060026040519080825280602002602001820160405280156109675781602001602082028038833980820191505090505b509050600360009054906101000a900473ffffffffffffffffffffffffffffffffffffffff168160008151811061099a57fe5b602002602001019073ffffffffffffffffffffffffffffffffffffffff16908173ffffffffffffffffffffffffffffffffffffffff1681525050600260009054906101000a900473ffffffffffffffffffffffffffffffffffffffff1681600181518110610a0457fe5b602002602001019073ffffffffffffffffffffffffffffffffffffffff16908173ffffffffffffffffffffffffffffffffffffffff16815250506060600160009054906101000a900473ffffffffffffffffffffffffffffffffffffffff1673ffffffffffffffffffffffffffffffffffffffff1663d06ca61f85846040518363ffffffff1660e01b8152600401610a9d929190612556565b60006040518083038186803b158015610ab557600080fd5b505afa158015610ac9573d6000803e3d6000fd5b505050506040513d6000823e3d601f19601f82011682018060405250610af29190810190611d1a565b9050600160009054906101000a900473ffffffffffffffffffffffffffffffffffffffff1673ffffffffffffffffffffffffffffffffffffffff166318cbafe58583600181518110610b4057fe5b60200260200101518530886040518663ffffffff1660e01b8152600401610b6b9594939291906125d2565b600060405180830381600087803b158015610b8557600080fd5b505af1158015610b99573d6000803e3d6000fd5b505050506040513d6000823e3d601f19601f82011682018060405250610bc29190810190611d1a565b5060008060009054906101000a900473ffffffffffffffffffffffffffffffffffffffff1673ffffffffffffffffffffffffffffffffffffffff1663809a9e5573eeeeeeeeeeeeeeeeeeeeeeeeeeeeeeeeeeeeeeee600360009054906101000a900473ffffffffffffffffffffffffffffffffffffffff16476040518463ffffffff1660e01b8152600401610c59939291906123f9565b604080518083038186803b158015610c7057600080fd5b505afa158015610c84573d6000803e3d6000fd5b505050506040513d601f19601f82011682018060405250610ca89190810190611dd6565b5090506000809054906101000a900473ffffffffffffffffffffffffffffffffffffffff1673ffffffffffffffffffffffffffffffffffffffff16637a2a045647600360009054906101000a900473ffffffffffffffffffffffffffffffffffffffff16846040518463ffffffff1660e01b8152600401610d2a929190612430565b6020604051808303818588803b158015610d4357600080fd5b505af1158015610d57573d6000803e3d6000fd5b50505050506040513d601f19601f82011682018060405250610d7c9190810190611dad565b505050505b600360009054906101000a900473ffffffffffffffffffffffffffffffffffffffff1673ffffffffffffffffffffffffffffffffffffffff166370a08231306040518263ffffffff1660e01b8152600401610ddc919061235c565b60206040518083038186803b158015610df457600080fd5b505afa158015610e08573d6000803e3d6000fd5b505050506040513d601f19601f82011682018060405250610e2c9190810190611dad565b915060008360200151600360009054906101000a900473ffffffffffffffffffffffffffffffffffffffff1673ffffffffffffffffffffffffffffffffffffffff166370a08231306040518263ffffffff1660e01b8152600401610e90919061235c565b60206040518083038186803b158015610ea857600080fd5b505afa158015610ebc573d6000803e3d6000fd5b505050506040513d601f19601f82011682018060405250610ee09190810190611dad565b039050827fa182d425c8a72702b0a5283325bf5ab4ecdded9d9107cc5822081040c54abb4c60405160405180910390a2807fb54e9a70a8a88cc17c01bb5dd656115b4b6887e14664f288b580e18bb4e1780560405160405180910390a28360200151831015610fdd57600460009054906101000a900473ffffffffffffffffffffffffffffffffffffffff1673ffffffffffffffffffffffffffffffffffffffff16638cd6b340848660200151036040518263ffffffff1660e01b8152600401610faa919061253b565b600060405180830381600087803b158015610fc457600080fd5b505af1158015610fd8573d6000803e3d6000fd5b505050505b60008460200151600360009054906101000a900473ffffffffffffffffffffffffffffffffffffffff1673ffffffffffffffffffffffffffffffffffffffff166370a08231306040518263ffffffff1660e01b815260040161103f919061235c565b60206040518083038186803b15801561105757600080fd5b505afa15801561106b573d6000803e3d6000fd5b505050506040513d601f19601f8201168201806040525061108f9190810190611dad565b039050600360009054906101000a900473ffffffffffffffffffffffffffffffffffffffff1673ffffffffffffffffffffffffffffffffffffffff1663a9059cbb600560009054906101000a900473ffffffffffffffffffffffffffffffffffffffff16836040518363ffffffff1660e01b8152600401611111929190612377565b602060405180830381600087803b15801561112b57600080fd5b505af115801561113f573d6000803e3d6000fd5b505050506040513d601f19601f820116820180604052506111639190810190611d5b565b5042818660000151600181111561117657fe5b7fa89b78c8d1240154beaf4b865d2d7cb794ac0f358c618aef3de102cf4a4ee42d60405160405180910390a45050505050505050565b60006111b78361140f565b90508373ffffffffffffffffffffffffffffffffffffffff1663095ea7b386836040518363ffffffff1660e01b81526004016111f4929190612377565b602060405180830381600087803b15801561120e57600080fd5b505af1158015611222573d6000803e3d6000fd5b505050506040513d601f19601f820116820180604052506112469190810190611d5b565b506060600360405190808252806020026020018201604052801561128457816020015b6112716118ad565b8152602001906001900390816112695790505b5090506000611293878761142c565b905061129f81866115de565b826000815181106112ac57fe5b60200260200101819052506112fe60405180604001604052808660018111156112d157fe5b8152602001858152506040516020016112ea9190612520565b604051602081830303815290604052611697565b8260018151811061130b57fe5b60200260200101819052506113208184611741565b8260028151811061132d57fe5b60200260200101819052506060600160405190808252806020026020018201604052801561137557816020015b611362611919565b81526020019060019003908161135a5790505b5090506113806117fa565b8160008151811061138d57fe5b60200260200101819052508773ffffffffffffffffffffffffffffffffffffffff1663a67a6a4582856040518363ffffffff1660e01b81526004016113d39291906123a0565b600060405180830381600087803b1580156113ed57600080fd5b505af1158015611401573d6000803e3d6000fd5b505050505050505050505050565b600061142560028361183390919063ffffffff16565b9050919050565b60008083905060008173ffffffffffffffffffffffffffffffffffffffff1663295c39a56040518163ffffffff1660e01b815260040160206040518083038186803b15801561147a57600080fd5b505afa15801561148e573d6000803e3d6000fd5b505050506040513d601f19601f820116820180604052506114b29190810190611dad565b9050600080600090505b8281101561159c578373ffffffffffffffffffffffffffffffffffffffff1663062bd3e9826040518263ffffffff1660e01b81526004016114fd919061253b565b60206040518083038186803b15801561151557600080fd5b505afa158015611529573d6000803e3d6000fd5b505050506040513d601f19601f8201168201806040525061154d9190810190611c27565b91508573ffffffffffffffffffffffffffffffffffffffff168273ffffffffffffffffffffffffffffffffffffffff16141561158f57809450505050506115d8565b80806001019150506114bc565b506040517f08c379a00000000000000000000000000000000000000000000000000000000081526004016115cf906124e0565b60405180910390fd5b92915050565b6115e6611949565b604051806101000160405280600160088111156115ff57fe5b81526020016000815260200160405180608001604052806000151581526020016000600181111561162c57fe5b81526020016000600181111561163e57fe5b8152602001858152508152602001848152602001600081526020013073ffffffffffffffffffffffffffffffffffffffff1681526020016000815260200160405180602001604052806000815250815250905092915050565b61169f611949565b6040518061010001604052806008808111156116b757fe5b8152602001600081526020016040518060800160405280600015158152602001600060018111156116e457fe5b8152602001600060018111156116f657fe5b81526020016000815250815260200160008152602001600081526020013073ffffffffffffffffffffffffffffffffffffffff16815260200160008152602001838152509050919050565b611749611949565b6040518061010001604052806000600881111561176257fe5b81526020016000815260200160405180608001604052806001151581526020016000600181111561178f57fe5b8152602001600060018111156117a157fe5b8152602001858152508152602001848152602001600081526020013073ffffffffffffffffffffffffffffffffffffffff1681526020016000815260200160405180602001604052806000815250815250905092915050565b6118026119b5565b60405180604001604052803073ffffffffffffffffffffffffffffffffffffffff1681526020016001815250905090565b60008082840190508381101561187e576040517f08c379a0000000000000000000000000000000000000000000000000000000008152600401611875906124c0565b60405180910390fd5b8091505092915050565b6040518060400160405280600060018111156118a057fe5b8152602001600081525090565b604051806101000160405280600060088111156118c657fe5b8152602001600081526020016118da6119e5565b81526020016000815260200160008152602001600073ffffffffffffffffffffffffffffffffffffffff16815260200160008152602001606081525090565b6040518060400160405280600073ffffffffffffffffffffffffffffffffffffffff168152602001600081525090565b6040518061010001604052806000600881111561196257fe5b8152602001600081526020016119766119e5565b81526020016000815260200160008152602001600073ffffffffffffffffffffffffffffffffffffffff16815260200160008152602001606081525090565b6040518060400160405280600073ffffffffffffffffffffffffffffffffffffffff168152602001600081525090565b604051806080016040528060001515815260200160006001811115611a0657fe5b815260200160006001811115611a1857fe5b8152602001600081525090565b600081359050611a348161298d565b92915050565b600081519050611a498161298d565b92915050565b600082601f830112611a6057600080fd5b8151611a73611a6e82612659565b61262c565b91508181835260208401935060208101905083856020840282011115611a9857600080fd5b60005b83811015611ac85781611aae8882611c12565b845260208401935060208301925050600181019050611a9b565b5050505092915050565b600081519050611ae1816129a4565b92915050565b600082601f830112611af857600080fd5b8135611b0b611b0682612681565b61262c565b91508082526020830160208301858383011115611b2757600080fd5b611b32838284612906565b50505092915050565b600081359050611b4a816129bb565b92915050565b600081519050611b5f816129bb565b92915050565b600060408284031215611b7757600080fd5b611b81604061262c565b90506000611b9184828501611b50565b6000830152506020611ba584828501611c12565b60208301525092915050565b600060408284031215611bc357600080fd5b611bcd604061262c565b90506000611bdd84828501611a25565b6000830152506020611bf184828501611bfd565b60208301525092915050565b600081359050611c0c816129cb565b92915050565b600081519050611c21816129cb565b92915050565b600060208284031215611c3957600080fd5b6000611c4784828501611a3a565b91505092915050565b60008060008060808587031215611c6657600080fd5b6000611c7487828801611a25565b9450506020611c8587828801611a25565b9350506040611c9687828801611bfd565b9250506060611ca787828801611b3b565b91505092959194509250565b600080600060808486031215611cc857600080fd5b6000611cd686828701611a25565b9350506020611ce786828701611bb1565b925050606084013567ffffffffffffffff811115611d0457600080fd5b611d1086828701611ae7565b9150509250925092565b600060208284031215611d2c57600080fd5b600082015167ffffffffffffffff811115611d4657600080fd5b611d5284828501611a4f565b91505092915050565b600060208284031215611d6d57600080fd5b6000611d7b84828501611ad2565b91505092915050565b600060408284031215611d9657600080fd5b6000611da484828501611b65565b91505092915050565b600060208284031215611dbf57600080fd5b6000611dcd84828501611c12565b91505092915050565b60008060408385031215611de957600080fd5b6000611df785828601611c12565b9250506020611e0885828601611c12565b9150509250929050565b6000611e1e8383611e7d565b60208301905092915050565b6000611e3683836121d8565b905092915050565b6000611e4a838361230f565b60408301905092915050565b6000611e62838361233e565b60208301905092915050565b611e7781612852565b82525050565b611e86816127be565b82525050565b611e95816127be565b82525050565b6000611ea6826126ed565b611eb08185612758565b9350611ebb836126ad565b8060005b83811015611eec578151611ed38882611e12565b9750611ede83612724565b925050600181019050611ebf565b5085935050505092915050565b6000611f04826126f8565b611f0e8185612769565b935083602082028501611f20856126bd565b8060005b85811015611f5c5784840389528151611f3d8582611e2a565b9450611f4883612731565b925060208a01995050600181019050611f24565b50829750879550505050505092915050565b6000611f7982612703565b611f83818561277a565b9350611f8e836126cd565b8060005b83811015611fbf578151611fa68882611e3e565b9750611fb18361273e565b925050600181019050611f92565b5085935050505092915050565b6000611fd78261270e565b611fe1818561278b565b9350611fec836126dd565b8060005b8381101561201d5781516120048882611e56565b975061200f8361274b565b925050600181019050611ff0565b5085935050505092915050565b612033816127d0565b82525050565b600061204482612719565b61204e818561279c565b935061205e818560208601612915565b61206781612948565b840191505092915050565b61207b81612864565b82525050565b61208a81612888565b82525050565b6120998161289a565b82525050565b6120a8816128ac565b82525050565b6120b7816128be565b82525050565b6120c6816128d0565b82525050565b60006120d9601b836127ad565b91507f536166654d6174683a206164646974696f6e206f766572666c6f7700000000006000830152602082019050919050565b60006121196024836127ad565b91507f4e6f206d61726b6574496420666f756e6420666f722070726f7669646564207460008301527f6f6b656e000000000000000000000000000000000000000000000000000000006020830152604082019050919050565b600061217f6024836127ad565b91507f436f756c64206e6f7420617070726f766520726573657276652061737365742060008301527f73656c6c000000000000000000000000000000000000000000000000000000006020830152604082019050919050565b6000610160830160008301516121f16000860182612081565b506020830151612204602086018261233e565b50604083015161221760408601826122ba565b50606083015161222a60c086018261233e565b50608083015161223d60e086018261233e565b5060a0830151612251610100860182611e7d565b5060c083015161226561012086018261233e565b5060e083015184820361014086015261227e8282612039565b9150508091505092915050565b6040820160008201516122a160008501826120ae565b5060208201516122b4602085018261233e565b50505050565b6080820160008201516122d0600085018261202a565b5060208201516122e36020850182612090565b5060408201516122f6604085018261209f565b506060820151612309606085018261233e565b50505050565b6040820160008201516123256000850182611e7d565b506020820151612338602085018261233e565b50505050565b61234781612848565b82525050565b61235681612848565b82525050565b60006020820190506123716000830184611e6e565b92915050565b600060408201905061238c6000830185611e8c565b612399602083018461234d565b9392505050565b600060408201905081810360008301526123ba8185611f6e565b905081810360208301526123ce8184611ef9565b90509392505050565b600060208201905081810360008301526123f18184611fcc565b905092915050565b600060608201905061240e6000830186612072565b61241b6020830185612072565b612428604083018461234d565b949350505050565b60006040820190506124456000830185612072565b612452602083018461234d565b9392505050565b600060608201905061246e6000830186612072565b61247b602083018561234d565b612488604083018461234d565b949350505050565b60006040820190506124a560008301856120bd565b81810360208301526124b78184611e9b565b90509392505050565b600060208201905081810360008301526124d9816120cc565b9050919050565b600060208201905081810360008301526124f98161210c565b9050919050565b6000602082019050818103600083015261251981612172565b9050919050565b6000604082019050612535600083018461228b565b92915050565b6000602082019050612550600083018461234d565b92915050565b600060408201905061256b600083018561234d565b818103602083015261257d8184611e9b565b90509392505050565b600060808201905061259b600083018761234d565b81810360208301526125ad8186611e9b565b90506125bc6040830185611e6e565b6125c9606083018461234d565b95945050505050565b600060a0820190506125e7600083018861234d565b6125f4602083018761234d565b81810360408301526126068186611e9b565b90506126156060830185611e6e565b612622608083018461234d565b9695505050505050565b6000604051905081810181811067ffffffffffffffff8211171561264f57600080fd5b8060405250919050565b600067ffffffffffffffff82111561267057600080fd5b602082029050602081019050919050565b600067ffffffffffffffff82111561269857600080fd5b601f19601f8301169050602081019050919050565b6000819050602082019050919050565b6000819050602082019050919050565b6000819050602082019050919050565b6000819050602082019050919050565b600081519050919050565b600081519050919050565b600081519050919050565b600081519050919050565b600081519050919050565b6000602082019050919050565b6000602082019050919050565b6000602082019050919050565b6000602082019050919050565b600082825260208201905092915050565b600082825260208201905092915050565b600082825260208201905092915050565b600082825260208201905092915050565b600082825260208201905092915050565b600082825260208201905092915050565b60006127c982612828565b9050919050565b60008115159050919050565b60008190506127ea82612959565b919050565b60008190506127fd82612966565b919050565b600081905061281082612973565b919050565b600081905061282382612980565b919050565b600073ffffffffffffffffffffffffffffffffffffffff82169050919050565b6000819050919050565b600061285d826128e2565b9050919050565b600061286f82612876565b9050919050565b600061288182612828565b9050919050565b6000612893826127dc565b9050919050565b60006128a5826127ef565b9050919050565b60006128b782612802565b9050919050565b60006128c982612815565b9050919050565b60006128db82612848565b9050919050565b60006128ed826128f4565b9050919050565b60006128ff82612828565b9050919050565b82818337600083830152505050565b60005b83811015612933578082015181840152602081019050612918565b83811115612942576000848401525b50505050565b6000601f19601f8301169050919050565b6009811061296357fe5b50565b6002811061297057fe5b50565b6002811061297d57fe5b50565b6002811061298a57fe5b50565b612996816127be565b81146129a157600080fd5b50565b6129ad816127d0565b81146129b857600080fd5b50565b600281106129c857600080fd5b50565b6129d481612848565b81146129df57600080fd5b5056fea365627a7a72315820505c7bac63c45fb714398e32daf15529e566586006ddd21fbedbb3b36801d2f06c6578706572696d656e74616cf564736f6c63430005100040",
  "source": "pragma solidity ^0.5.0;\npragma experimental ABIEncoderV2;\n\nimport \"@studydefi/money-legos/dydx/contracts/DydxFlashloanBase.sol\";\nimport \"@studydefi/money-legos/dydx/contracts/ICallee.sol\";\nimport {KyberNetworkProxy as IKyberNetworkProxy} from \"@studydefi/money-legos/kyber/contracts/KyberNetworkProxy.sol\";\n\nimport \"@openzeppelin/contracts/token/ERC20/IERC20.sol\";\nimport \"./IUniswapV2Router02.sol\";\nimport \"./IWeth.sol\";\nimport \"./DaiFaucet.sol\";\n\ncontract TestableFlashloan is ICallee, DydxFlashloanBase {\n  enum Direction {KyberToUniswap, UniswapToKyber}\n  struct ArbInfo {\n    Direction direction;\n    uint256 repayAmount;\n  }\n\n  event NewArbitrage(Direction indexed direction, uint256 indexed profit, uint256 indexed date);\n\n  // for debugging\n  event GetKyberExpectedRate(uint256 indexed expectedRate);\n  event GetBalanceDAI(uint256 indexed balance);\n  event GetProfit(int256 indexed profit);\n  event GetMinOuts(uint256[] minOuts);\n\n  IKyberNetworkProxy kyber;\n  IUniswapV2Router02 uniswap;\n  IWeth weth;\n  IERC20 dai;\n  DaiFaucet daiFaucet;\n  address beneficiary;\n  address constant KYBER_ETH_ADDRESS = 0xEeeeeEeeeEeEeeEeEeEeeEEEeeeeEeeeeeeeEEeE;\n\n  constructor(\n    address kyberAddress,\n    address uniswapAddress,\n    address wethAddress,\n    address daiAddress,\n    address daiFaucetAddress,\n    address beneficiaryAddress\n  ) public {\n    kyber = IKyberNetworkProxy(kyberAddress);\n    uniswap = IUniswapV2Router02(uniswapAddress);\n    weth = IWeth(wethAddress);\n    dai = IERC20(daiAddress);\n    daiFaucet = DaiFaucet(daiFaucetAddress);\n    beneficiary = beneficiaryAddress;\n  }\n\n  // This is the function that will be called postLoan\n  // i.e. Encode the logic to handle your flashloaned funds here\n  function callFunction(\n    address sender,\n    Account.Info memory account,\n    bytes memory data\n  ) public {\n    ArbInfo memory arbInfo = abi.decode(data, (ArbInfo));\n    uint256 balanceDai = dai.balanceOf(address(this));\n    uint256 deadline = now + 300;\n\n    emit GetBalanceDAI(balanceDai);\n\n    if (arbInfo.direction == Direction.KyberToUniswap) {\n      // Buy ETH on Kyber\n      require(dai.approve(address(kyber), balanceDai), \"Could not approve reserve asset sell\");\n      (uint256 expectedRate, ) = kyber.getExpectedRate(dai, IERC20(KYBER_ETH_ADDRESS), balanceDai);\n\n      emit GetKyberExpectedRate(expectedRate);\n\n      kyber.swapTokenToEther(dai, balanceDai, expectedRate);\n\n      // Sell ETH on Uniswap\n      address[] memory path = new address[](2);\n      path[0] = address(weth);\n      path[1] = address(dai);\n\n      // https://uniswap.org/docs/v2/smart-contracts/library#getamountsout\n      // Given an input asset amount and an array of token addresses, calculates all subsequent maximum output token amounts\n      uint256[] memory minOuts = uniswap.getAmountsOut(address(this).balance, path);\n\n      // just for testing\n      uint256[] memory minOutsTest = uniswap.getAmountsOut(1 ether, path);\n      emit GetMinOuts(minOutsTest);\n\n      // https://uniswap.org/docs/v2/smart-contracts/router02/\n      // Swaps an exact amount of ETH for as many output tokens as possible, along the route determined by the path.\n      // The first element of path must be WETH, the last is the output token\n      uniswap.swapExactETHForTokens.value(address(this).balance)(minOuts[1], path, address(this), deadline);\n    } else {\n      // Buy ETH on Uniswap\n      require(dai.approve(address(uniswap), balanceDai), \"Could not approve reserve asset sell\");\n      address[] memory path = new address[](2);\n      path[0] = address(dai);\n      path[1] = address(weth);\n      uint256[] memory minOuts = uniswap.getAmountsOut(balanceDai, path);\n      uniswap.swapExactTokensForETH(balanceDai, minOuts[1], path, address(this), deadline);\n\n      // Sell ETH on Kyber\n      (uint256 expectedRate, ) = kyber.getExpectedRate(IERC20(KYBER_ETH_ADDRESS), dai, address(this).balance);\n      kyber.swapEtherToToken.value(address(this).balance)(dai, expectedRate);\n    }\n\n    balanceDai = dai.balanceOf(address(this));\n    int256 profit = int256(dai.balanceOf(address(this)) - arbInfo.repayAmount);\n\n    emit GetBalanceDAI(balanceDai);\n    emit GetProfit(profit);\n\n    if (balanceDai < arbInfo.repayAmount) {\n      daiFaucet.sendDai(arbInfo.repayAmount - balanceDai);\n    }\n\n    uint256 positiveProfit = dai.balanceOf(address(this)) - arbInfo.repayAmount;\n    dai.transfer(beneficiary, positiveProfit);\n    emit NewArbitrage(arbInfo.direction, positiveProfit, now);\n  }\n\n  function initateFlashLoan(\n    address _solo,\n    address _token,\n    uint256 _amount,\n    Direction _direction\n  ) external {\n    // Calculate repay amount (_amount + (2 wei))\n    // Approve transfer from\n    uint256 repayAmount = _getRepaymentAmountInternal(_amount);\n    IERC20(_token).approve(_solo, repayAmount);\n\n    // 1. Withdraw $\n    // 2. Call callFunction(...)\n    // 3. Deposit back $\n    Actions.ActionArgs[] memory operations = new Actions.ActionArgs[](3);\n\n    // Get marketId from token address\n    uint256 marketId = _getMarketIdFromTokenAddress(_solo, _token);\n\n    operations[0] = _getWithdrawAction(marketId, _amount);\n    operations[1] = _getCallAction(\n      // Encode MyCustomData for callFunction\n      abi.encode(ArbInfo({direction: _direction, repayAmount: repayAmount}))\n    );\n    operations[2] = _getDepositAction(marketId, repayAmount);\n\n    Account.Info[] memory accountInfos = new Account.Info[](1);\n    accountInfos[0] = _getAccountInfo();\n\n    ISoloMargin(_solo).operate(accountInfos, operations);\n  }\n\n  function() external payable {}\n}\n",
  "sourcePath": "/home/min/Projects/lx/src/github.com/ilovelili/flashloan/contracts/TestableFlashloan.sol",
  "compiler": {
    "name": "solc",
    "version": "0.5.16+commit.9c3226ce.Emscripten.clang"
  },
  "schemaVersion": "3.1.0",
  "updatedAt": "2020-08-15T06:34:59.964Z",
  "devdoc": {
    "methods": {}
  },
  "userdoc": {
    "methods": {}
  }
}